:020000040800F2
:100000007806002099010008A31700089B17000834
:100010009F170008050200085D1E00080000000090
:1000200000000000000000000000000001010008C6
:10003000090200080000000045010008251800081A
:10004000B3010008B3010008B3010008B3010008C0
:10005000B3010008B3010008B3010008B3010008B0
:10006000B3010008B3010008B3010008B3010008A0
:10007000B3010008B3010008B3010008B301000890
:10008000B3010008B3010008B3010008B301000880
:10009000B3010008B3010008B3010008B301000870
:1000A000B3010008B3010008B3010008B301000860
:1000B000B3010008B3010008B3010008B301000850
:1000C000B3010008B3010008B3010008B301000840
:1000D000B30100081D1E0008B3010008B3010008A9
:1000E000B3010008B3010008B3010008DFF80CD029
:1000F00000F076F800480047711F000878060020DD
:10010000224B19680868B0E8F00F80F30988BFF344
:100110006F8F4FF0000080F311884EF00D0E704786
:100120000000000006480068006880F3088862B696
:1001300061B6BFF34F8FBFF36F8F00DF00BF00BF0B
:1001400008ED00E0EFF30980BFF36F8F0F4B1A68E3
:1001500020E9F00F106008B54FF0BF0080F3118860
:10016000BFF34F8FBFF36F8F02F0DAF84FF000004C
:1001700080F31188BDE8084019680868B0E8F00FFE
:1001800080F30988BFF36F8F704700BF1C00002009
:10019000EFF3058070470000064880470648004797
:1001A000FEE7FEE7FEE7FEE7FEE7FEE7FEE7FEE727
:1001B000FEE7FEE759180008ED000008D2B201E0A2
:1001C00000F8012B491EFBD270470022F6E710B55C
:1001D00013460A4604461946FFF7F0FF204610BDB5
:1001E000064C074D06E0E06840F0010394E8070084
:1001F00098471034AC42F6D3FFF77CFFC8240008C0
:10020000E824000800BFFEE770470146002291F88D
:100210002100022808D00420886300BF002081F854
:10022000200000BF012070470868006820F00E0021
:100230000B6818600868006820F001000B681860FF
:1002400091F8403001209840CB6B5860012081F834
:10025000210000BF002081F8200000BF1046E2E727
:1002600070B50446002594F82100022803D004202C
:10027000A063012548E02068006820F00E00216896
:1002800008602068006820F00100216808601F49AC
:100290002068884201D1012026E01C4914312068E1
:1002A000884201D110201FE0184928312068884277
:1002B00001D1801518E015493C312068884201D1F0
:1002C000801411E0114950312068884202D14FF466
:1002D000803009E00D4964312068884202D14FF432
:1002E000801001E04FF08070084908394860012013
:1002F00084F8210000BF002084F8200000BF606B5C
:1003000010B12046616B8847284670BD0800024046
:100310002DE9F8470346002294466EE14FF00108AC
:1003200008FA02F4D1F8008008EA0400A0427DD166
:10033000DFF8DCA2D1F80480A8EB0A09D0453AD056
:1003400014DCB8F1030F50D009DCB8F1000F31D044
:10035000B8F1010F1CD0B8F1020F49D120E0B8F17B
:10036000110F18D0B8F1120F42D11EE0B9F5881F55
:1003700025D006DCB9F5803F20D0B9F5801F37D1F4
:100380001AE0B9F5001F18D0B9F5041F30D117E0F5
:10039000D1F80CC02DE0D1F80C8008F1040C28E055
:1003A000D1F80C8008F1080C23E0D1F80C8008F19A
:1003B0000C0C1EE000BF00BF00BF00BF00BF00BFAD
:1003C000D1F80880B8F1000F02D14FF0040C0BE017
:1003D000D1F80880B8F1010F03D14FF0080C1C616F
:1003E00002E04FF0080C5C6103E04FF0000C00E00D
:1003F00000BF00BFFF2801D8984601E003F10408C0
:100400004646FF2802D84FEA820803E0A2F1080816
:100410004FEA88084746D6F800804FF00F0909FADE
:1004200007F928EA09080CFA07F900E088E048EA29
:100430000908C6F80080D1F8048008F08058B8F1A7
:10044000805F7DD100BFDFF8CC81D8F8188048F0FC
:100450000108DFF8C091C9F81880C846D8F818809C
:1004600008F00108CDF8008000BF00BF4FEAB9389E
:100470004FEA920958F829504FEA82784FEA1879E2
:100480004FF00F0808FA09F825EA0805DFF8888117
:10049000434502D14FF0000816E0DFF88081434564
:1004A00002D14FF001080FE0DFF87481434502D11B
:1004B0004FF0020808E0DFF86C81434502D14FF0AD
:1004C000030801E04FF004084FEA82794FEA1979F6
:1004D00008FA09F848EA0505DFF84C814FEA920965
:1004E00048F82950D1F8048008F48018B8F5801F26
:1004F0000AD1DFF83881D8F8008048EA0008DFF830
:100500002C91C9F8008009E0DFF82081D8F800803C
:1005100028EA0008DFF81491C9F80080D1F80480B7
:1005200008F40018B8F5001F10D1DFF8008108F1B9
:100530000408D8F8008048EA0008DFF8F09000E0EE
:100540005AE009F10409C9F800800DE0DFF8DC8009
:1005500008F10408D8F8008028EA0008DFF8CC90F9
:1005600009F10409C9F80080D1F8048008F40038C2
:10057000B8F5003F0ED1DFF8B480A8F10408D8F830
:10058000008048EA0008DFF8A490A9F10409C9F83E
:1005900000800DE0DFF89480A8F10408D8F800800E
:1005A00028EA0008DFF88490A9F10409C9F800805E
:1005B000D1F8048008F48038B8F5803F0ED1DFF818
:1005C0006C80A8F10808D8F8008048EA0008DFF835
:1005D0005C90A9F10809C9F800800DE0DFF84C80B3
:1005E000A8F10808D8F8008028EA0008DFF83C9055
:1005F000A9F10809C9F80080521CD1F8008028FA36
:1006000002F8B8F1000F7FF489AEBDE8F88700006A
:10061000000011100010024000080140000C0140D1
:10062000001001400014014008000140080401408E
:100630000AB1016101E00B040361704701480068E1
:10064000704700001000002010B50848006840F016
:10065000100006490860032000F080F80F2000F029
:1006600007F800F02BF8002010BD00000020024029
:1006700070B504460E4800784FF47A71B1FBF0F083
:100680000C490968B1FBF0F5284600F0E5FB08B11C
:10069000012070BD102C07D200222146501E00F010
:1006A0001EF80548046001E00120F2E70020F0E7B1
:1006B00018000020000000201400002070470146B0
:1006C0000846002809DB00F01F0301229A40430975
:1006D0009B0003F1E023C3F8002100BF70472DE920
:1006E000F05F80460D461646002701F0B9FB07462D
:1006F00039462A46334601F00700C0F1070ABAF12D
:10070000040F02D94FF0040A01E0C0F1070AD146F4
:1007100000F1040ABAF1070F02D24FF0000A01E01B
:10072000A0F1030AD4464FF0010A0AFA09FAAAF125
:10073000010A0AEA020A0AFA0CFA4FF0010B0BFA54
:100740000CFBABF1010B0BEA030B4AEA0B0421464D
:10075000404601F08DFBBDE8F09F000000BF00F0B7
:100760000702064B19684FF6FF031940044B0B4371
:1007700043EA0221014B196000BF70470CED00E015
:100780000000FA0570B504460D460CB9012070BD95
:100790005A48006800F00700A8420ED25748006887
:1007A00020F007002843554908600846006800F01B
:1007B0000700A84201D00120E9E7207800F00200FC
:1007C00002281DD1207800F00400042805D14C48EF
:1007D000406840F4E0604A494860207800F0080032
:1007E000082805D14648406840F4605044494860B4
:1007F0004348406820F0F000A16808434049486041
:10080000207800F0010078B36068012806D13C48E8
:10081000006800F4003090B90120B8E76068022851
:1008200006D13748006800F0007040B90120AEE7FB
:100830003348006800F0020008B90120A7E73048FB
:10084000406820F00300616808432D494860FFF7C5
:10085000F5FE064609E0FFF7F1FE801B41F2883104
:10086000884202D9032092E707E02548406800F05B
:100870000C006168B0EB810FEDD12048006800F0FA
:100880000700A8420ED91D48006820F00700284341
:100890001A4908600846006800F00700A84201D025
:1008A000012074E7207800F00400042807D11448E0
:1008B000406820F4E060E16808431149486020780E
:1008C00000F00800082808D10D48406820F4605066
:1008D000216940EAC1000A49486000F03FF8084930
:1008E0004968C1F30311074A515CC84006490860D2
:1008F00006480068FFF7BCFE002048E700200240E1
:10090000001002409C240008000000201400002079
:1009100001480068704700000000002000B5FFF7A4
:10092000F7FF04494968C1F30221034A515CC840FA
:1009300000BD000000100240AC24000800B5FFF725
:10094000E7FF04494968C1F3C221034A515CC8402A
:1009500000BD000000100240AC24000870B500216A
:100960000022002400230020134D696801F00C05CB
:10097000F5B1042D02D0082D19D101E00F4819E07E
:100980000F4DC1F38346AB5D01F4803555B10A4D7F
:100990006D68C5F340450B4E725D084D5D43B5FB78
:1009A000F2F402E0084D03FB05F4204602E000BF2C
:1009B000024800BF00BF70BD0010024000127A0064
:1009C000B4240008C424000800093D00F8B504461A
:1009D0000CB90120F8BD207800F00100002878D083
:1009E000F848406800F00C0004280CD0F548406836
:1009F00000F00C00082811D1F248406800F4803063
:100A0000B0F5803F0AD1EF48006800F400300028BC
:100A10005FD0606800285CD10120DBE700BF606820
:100A2000B0F5803F06D1E748006840F48030E549E2
:100A3000086028E0606858B9E248006820F4803017
:100A4000E04908600846006820F4802008601AE049
:100A50006068B0F5A02F0BD1DA48006840F4802020
:100A6000D84908600846006840F4803008600AE011
:100A7000D448006820F48030D249086008460068F5
:100A800020F48020086000BF606888B1FFF7D6FDC1
:100A9000054606E0FFF7D2FD401B642801D903207C
:100AA00098E7C848006800F400300028F2D010E051
:100AB000FFF7C4FD054606E0FFF7C0FD401B6428B4
:100AC00001D9032086E7BF48006800F40030002801
:100AD000F2D1207800F00200022857D1B9484068CE
:100AE00000F00C0050B1B748406800F00C00082836
:100AF00018D1B448406800F4803098B9B148006813
:100B000000F0020020B12069012801D0012061E736
:100B1000AC48006820F0F800616940EAC100A949CA
:100B2000086033E02069E8B10120A7490860FFF7B9
:100B300085FD054606E0FFF781FD401B022801D92F
:100B4000032047E79F48006800F002000028F2D029
:100B50009C48006820F0F800616940EAC1009949AA
:100B6000086013E0002098490860FFF767FD05461C
:100B700006E0FFF763FD401B022801D9032029E7A7
:100B80009048006800F002000028F2D1207800F0C0
:100B9000080008282DD1A069B8B101208B49086050
:100BA000FFF74CFD054606E0FFF748FD401B022815
:100BB00001D903200EE78348406A00F002000028B4
:100BC000F2D0012000F0EEFD13E000207F49086024
:100BD000FFF734FD054606E0FFF730FD401B022815
:100BE00001D90320F6E67748406A00F002000028A9
:100BF000F2D1207800F00400042873D10027714856
:100C0000C06900F0805070B900BF6E48C06940F004
:100C100080506C49C8610846C06900F0805000905F
:100C200000BF00BF01276A48006800F48070B0B9B7
:100C30006748006840F4807065490860FFF7FEFC73
:100C4000054606E0FFF7FAFC401B642801D90320A3
:100C5000C0E65F48006800F480700028F2D000BF52
:100C6000E068012806D15748006A40F00100554964
:100C7000086227E0E06858B95248006A20F0010095
:100C8000504908620846006A20F00400086219E032
:100C9000E06805280BD14B48006A40F00400494940
:100CA00008620846006A40F0010008620AE0454810
:100CB000006A20F00100434908620846006A20F0FB
:100CC0000400086200BFE068A0B1FFF7B7FC05466A
:100CD00009E0FFF7B3FC401B41F28831884202D99A
:100CE000032077E622E03748006A00F0020000287F
:100CF000EFD012E0FFF7A2FC054608E0FFF79EFCEC
:100D0000401B41F28831884201D9032062E62D4818
:100D1000006A00F002000028F0D1012F05D1294817
:100D2000C06920F080502749C86100BFE069C8B39E
:100D30002448406800F00C00082860D0E0690228D0
:100D400048D1002020490866FFF778FC054606E0F8
:100D5000FFF774FC401B022801D903203AE619482A
:100D6000006800F000700028F2D1206AB0F5803FE2
:100D700007D11448406820F40030A16808431149A5
:100D80004860D4E9080108430E49496821F4741108
:100D900008430C49486001200B490866FFF74EFCE8
:100DA000054607E03DE0FFF749FC401B022801D95A
:100DB00003200FE60348006800F000700028F2D01E
:100DC0002FE0000000100240000042428004424236
:100DD00000700040002014490866FFF72FFC05460C
:100DE00006E0FFF72BFC401B022801D90320F1E5A8
:100DF0000E48006800F000700028F2D111E0E069B0
:100E0000012800D1E6E50948466806F48031206AE9
:100E1000814204D106F47011606A814201D0012040
:100E2000D8E50020D6E50000000042420010024054
:100E3000042808D14FF0E021096941F004014FF086
:100E4000E022116107E04FF0E021096921F004017F
:100E50004FF0E0221161704770B504462546681EC8
:100E6000B0F1807F01D301200FE0681E4FF0E02138
:100E700048610F214FF0FF3000F0FAFF00204FF0E3
:100E8000E021886107200861002070BD30B502466E
:100E90000B4600BF92F83C00012801D1022030BD72
:100EA000012082F83C0000BF022082F83D0010685B
:100EB00044681068816824F070041868044310685E
:100EC0004460104D1068A8420BD01068B0F1804FFC
:100ED00007D00D4D1068A84203D00C4D1068A842F1
:100EE00005D121F08001586801431068816001201C
:100EF00082F83D0000BF002082F83C0000BF00BF28
:100F0000CDE70000002C0140000400400008004034
:100F100010B504460CB9012010BD94F83D0028B965
:100F2000002084F83C00204600F025F8022084F8D8
:100F30003D00211D206800F091FC012084F846004E
:100F400000BF84F83E0001213F200155402001559B
:100F50004120015500BF00BF012084F8420043201A
:100F60000155442001554520015500BF012084F85A
:100F70003D000020D0E77047014691F83D00012870
:100F800001D001207047022081F83D00124B086813
:100F900098420BD00868B0F1804F07D00F4B08681B
:100FA000984203D00E4B086898420CD108688068BC
:100FB00000F00702062A0CD00868006840F0010023
:100FC0000B68186005E00868006840F001000B68D5
:100FD00018600020D6E70000002C0140000400400B
:100FE000000800402DE9F04104460D46002700BFEF
:100FF00094F83C00012802D10220BDE8F0810120D4
:1010000084F83C0000BF022084F83D002068866818
:1010100026F0770626F47F462068866028685028E8
:1010200033D00CDC202850D004DC00284BD0102812
:1010300051D149E0302849D040284CD139E06028CE
:101040002DD0702807D0B0F5805F03D0B0F5005FD9
:1010500041D10DE041E0D5E902136A68206800F053
:1010600048FC2068866846F077062068866034E091
:10107000D5E902136A68206800F03BFC20688068AC
:1010800040F480402168886027E0EA686968206849
:1010900000F000FD5021206800F036FC1DE0EA68F9
:1010A0006968206800F009FD6021206800F02CFCD0
:1010B00013E0EA686968206800F0ECFC40212068D1
:1010C00000F022FC09E000BF00BF00BF29682068D3
:1010D00000F01AFC01E0012700BF00BF012084F8E6
:1010E0003D0000BF002084F83C0000BF384684E784
:1010F0002DE9F04104460D461646002700BF94F83E
:101100003C00012802D10220BDE8F081012084F8D2
:101110003C0000BF36B1042E1BD0082E31D00C2E5F
:101120005ED145E02946206800F0F8FB2068806920
:1011300040F00800216888612068806920F0040080
:10114000216888612068806929690843216888616D
:1011500048E02946206800F011FC2068806940F4CE
:101160000060216888612068806920F480602168BF
:10117000886120688069296940EA012021688861C6
:1011800030E02946206800F02DFC2068C06940F05E
:1011900008002168C8612068C06920F00400216847
:1011A000C8612068C069296908432168C86119E0DD
:1011B0002946206800F04AFC2068C06940F40060BD
:1011C0002168C8612068C06920F480602168C86116
:1011D0002068C069296940EA01202168C86101E0EE
:1011E000012700BF00BF00BF002084F83C0000BF03
:1011F000384689E770B504460D4615B994F83E00A7
:101200000BE0042D02D13F20005D06E0082D02D145
:101210004020005D01E04120005D012801D0012057
:1012200070BD1DB9022084F83E000EE0042D03D1EC
:1012300002213F20015508E0082D03D10221402062
:10124000015502E002214120015501222946206872
:1012500000F03EFB19492068884201D1012000E0DE
:10126000002028B12068406C40F4004021684864A8
:101270001249206888420BD02068B0F1804F07D017
:101280000F492068884203D00E49206888420CD15B
:101290002068806800F00706062E0CD020680068E1
:1012A00040F001002168086005E02068006840F017
:1012B0000100216808600020B2E70000002C014016
:1012C00000040040000800407047704701460022BB
:1012D000002391F8412091F8423042EA0300704720
:1012E0002DE9F84F0446206805682068C668206824
:1012F00047694FF00009CA4605F00F09B9F1000F20
:101300000AD105F0200038B106F0200020B12046B7
:1013100000F037FCBDE8F88FB9F1000F7BD007F083
:10132000010018B906F49070002874D005F001008F
:1013300030B106F4807018B1606C40F00100606458
:1013400005F0040030B107F0010018B1606C40F006
:101350000200606405F0020030B107F0010018B12E
:10136000606C40F00400606405F0080048B106F0CD
:10137000200010B907F0010018B1606C40F00800BF
:101380006064606C002845D005F0200028B106F0AC
:10139000200010B1204600F0F4FB20684069C0F343
:1013A000801A606C00F0080010B9BAF1000F2CD060
:1013B000204600F0A0FB2068406900F0400000B328
:1013C00000BF00BF2168143151E8001F21F0400028
:1013D0002168143141E80002002AF3D100BFE06B1C
:1013E00050B17748E16B4863E06BFEF739FF88B195
:1013F000E06B416B88470DE02046FFF766FF09E090
:1014000009E02046FFF761FF04E02046FFF75DFF9B
:10141000002060647EE7206B012877D105F0100082
:10142000002873D006F010000028FAD000BF00207A
:10143000009020680068009020684068009000BF1D
:1014400000BF2068406900F0400000285FD0E06BDA
:10145000006840681FFA80F8B8F1000F55D0A08DE1
:10146000404552DDA4F82E80E06B8069202843D0EF
:1014700000BF00BF21680C3151E8001F21F48070CB
:1014800021680C3141E80002002AF3D100BF00BFFF
:1014900000BF2168143151E8001F21F001002168CC
:1014A000143141E80002002AF3D100BF00BF00BFA1
:1014B0002168143151E8001F21F0400021681431E7
:1014C00041E80002002AF3D100BF202084F8420046
:1014D0000020206300BF00BF21680C3151E8001FCD
:1014E00021F0100021680C3141E80002002AF3D1FC
:1014F00000BFE06BFEF789FE02206063A08DE28DE5
:10150000801A81B22046FFF7DFFE03E742E0A08D9C
:10151000E18D401A1FFA80F8E08DD0B3B8F1000FCA
:1015200037D000BF00BF21680C3151E8001F21F403
:10153000907021680C3141E80002002AF3D100BF0D
:1015400000BF00BF2168143151E8001F21F00100E5
:101550002168143141E80002002AF3D100BF2020A5
:1015600084F842000020206300BF00BF21680C31D6
:1015700051E8001F21F0100021680C3141E8000201
:10158000002AF3D100BF0220606341462046FFF7E6
:101590009BFEBFE605F0800030B106F0800018B178
:1015A000204600F00BFCB5E605F0400030B106F037
:1015B000400018B1204600F0D4FAABE600BFA9E61F
:1015C000E31A000810B504460CB9012010BDA0694B
:1015D00000B100E000BF94F8410028B9002084F871
:1015E0004000204600F02AF8242084F841002068BA
:1015F000C06820F400502168C860204600F040FB1D
:101600002068006920F490402168086120684069E2
:1016100020F02A00216848612068C06840F400502A
:101620002168C86000206064202084F8410084F8AC
:1016300042000020606300BFC8E7000010B586B01C
:10164000044625492068884244D100BF2348806968
:1016500040F00400214988610846806900F00400D8
:10166000019000BF00BF00BF0846806940F4804081
:1016700088610846806900F48040019000BF00BF87
:1016800000BF0846806940F0010088610846806913
:1016900000F00100019000BF00BF48150290022039
:1016A0000390012004900320059002A90C48FEF746
:1016B0002FFE4FF4806002900020039002A908489A
:1016C000FEF726FE2520FEF7FAFF0322114625200D
:1016D000FFF705F806B010BD0038014000100240C9
:1016E0000008014070B504460D46164694F84200C5
:1016F00020280BD105B10EB9012070BD0020206358
:1017000032462946204600F039FBF6E70220F4E78E
:101710001D4A0168914236D11C49098801F40041F3
:1017200089BB1A49098801F4804171B118490978C7
:101730000A2903D00021154A118024E013490988A1
:1017400041F40041114A11801DE0114909780D2929
:1017500006D10E49098841F480410C4A118012E0FB
:101760000B490978094A1288C2F30D02094B9954B2
:1017700006490988491C054A118011460988C7296C
:1017800001DD002111807047003801400C0000206D
:101790000E00002058000020704700BFFEE700BF89
:1017A000FEE7704708B508490968C9084FF47A721E
:1017B000B1FBF2F14143009100BF00BF00994A1E06
:1017C00000920029F9D108BD0000002030B58FB08B
:1017D0000546002401200590000406900020079093
:1017E00002200C90C1030D910E9505A8FFF7EEF8AD
:1017F00004460CB100BFFEE70F20009002200190CC
:10180000002002904FF48060039000200490022199
:101810006846FEF7B7FF04460CB100BFFEE70FB005
:1018200030BD000010B500BFBF2080F31188BFF3AA
:101830004F8FBFF36F8F00BF00F0A2FD18B14FF0C4
:1018400080500449086000BF002080F3118800BF69
:1018500010BD000004ED00E07047000010B5026804
:10186000184B984208D0B0F1804F05D0164B9842E3
:1018700002D0164B984203D122F070024B681A43F3
:10188000104B984208D0B0F1804F05D00E4B9842D3
:1018900002D00E4B984203D122F44072CB681A4317
:1018A00022F080034C6943EA040202608B68C36241
:1018B0000B688362034B984201D10B6903630123D8
:1018C000436110BD002C01400004004000080040AE
:1018D00030B501F01F05012404FA05F3046A9C43A6
:1018E0000462046A01F01F0502FA05F52C43046244
:1018F00030BD30B50C46816821F47F4142EA0325B2
:1019000025432943816030BD0A46816821F070017A
:1019100042F00703194381607047000030B5026A46
:10192000056A25F0010505624368846924F07004A6
:1019300024F003040D682C4322F002028D682A4330
:101940000D4DA84206D100BF22F00802CD682A43FF
:1019500022F00402084DA84207D123F4807323F437
:1019600000734D692B438D692B43436084614D683F
:101970004563026230BD0000002C014030B5026AB0
:10198000056A25F0100505624368846924F4E04483
:1019900024F440740D6844EA052422F020028D6886
:1019A00042EA05120E4DA84207D100BF22F0800284
:1019B000CD6842EA051222F04002094DA84209D141
:1019C00023F4806323F400634D6943EA85038D6942
:1019D00043EA8503436084614D688563026230BDDC
:1019E000002C014030B5026A056A25F48075056255
:1019F0004368C46924F0700424F003040D682C4388
:101A000022F400728D6842EA05220F4DA84207D1E8
:101A100000BF22F40062CD6842EA052222F480620F
:101A2000094DA84209D123F4805323F400534D6992
:101A300043EA05138D6943EA05134360C4614D68A9
:101A4000C563026230BD0000002C014030B5036A5E
:101A5000056A25F4805505624468C26922F4E042B3
:101A600022F440720D6842EA052223F400538D6887
:101A700043EA0533064DA84204D124F480444D695D
:101A800044EA85144460C2614D680564036230BD58
:101A9000002C014030B50B461446026A056A25F059
:101AA00001050562816921F0F00141EA041122F08B
:101AB0000A021A438161026230BD30B50B461446FA
:101AC000026A056A25F010050562816921F47041FA
:101AD00041EA043122F0A00242EA0312816102626B
:101AE00030BD70B505466C6A0020E085E084204674
:101AF000FFF7EBFB70BD00BF00BF02680C3252E87D
:101B0000002F22F4907102680C3242E80013002B7F
:101B1000F3D100BF00BF00BF0268143252E8002FAB
:101B200022F001010268143242E80013002BF3D1C5
:101B300000BF016B01290ED100BF00BF02680C324B
:101B400052E8002F22F0100102680C3242E8001324
:101B5000002BF3D100BF202180F842100021016347
:101B6000704710B504462068C06820F04000216826
:101B7000C860202084F841002046FFF70DFE0020B9
:101B800010BDF8B5044694F84200222875D1A0682B
:101B9000B0F5805F0CD1206950B90025A66A206895
:101BA0004068C0F308003080A06A801CA06215E085
:101BB000A56A0026A068B0F5805F03D0A06828B9A8
:101BC000206918B920684068287004E020684068DF
:101BD00000F07F002870A06A401CA062E08D401ECB
:101BE00080B2E085002846D12068C06820F020003F
:101BF0002168C8602068C06820F480702168C860CF
:101C00002068406920F0010021684861202084F8A4
:101C1000420000206063206B012826D10020206351
:101C200000BF00BF21680C3151E8001F21F01000F7
:101C300021680C3141E80002002AF3D100BF20687E
:101C4000006800F0100010280AD100BF00200090AA
:101C500020680068009020684068009000BF00BFC6
:101C6000A18D2046FFF730FB02E02046FFF750FD34
:101C70000020F8BD01E00020FBE70220F9E70000AA
:101C800070B504462168096921F44051E2681143A6
:101C9000226811612269A1681143626941EA020563
:101CA0002168C96841F20C62914329432268D160DE
:101CB0002168496921F44071A26911432268516188
:101CC0002D4A2168914202D1FEF738FE01E0FEF76D
:101CD00025FE00EBC00101EB001162689200B1FB30
:101CE000F2F100EBC00202EB001263689B00B2FB52
:101CF000F3F26423B2FBF3F202EBC20303EB021232
:101D0000A1EB8201322202EB01116422B1FBF2F15C
:101D100001F0F00100EBC00202EB001263689B00CF
:101D2000B2FBF3F26423B2FBF3F201EB021200EB1D
:101D3000C00101EB001163689B00B1FBF3F100EB04
:101D4000C00303EB00136668B600B3FBF6F364262A
:101D5000B3FBF6F303EBC30606EB0313A1EB83011E
:101D6000322303EB01116423B1FBF3F101F00F0106
:101D700011442268916070BD0038014010B50346DF
:101D800099629A85DA8500205864222083F84200FF
:101D9000186928B11868C06840F480701C68E06059
:101DA0001868406940F001001C6860611868C068EC
:101DB00040F020001C68E060002010BD014691F852
:101DC0004100212828D18868B0F5805F0BD10869CF
:101DD00048B90A6A1088C0F308000B685860086A9E
:101DE000801C086205E00B6A581C086218780B68B2
:101DF0005860C88C401E80B2C88458B90868C06852
:101E000020F080000B68D8600868C06840F040008F
:101E10000B68D860002070470220FCE710B5002452
:101E20000C48FFF75DFA00BF01E0641C00BF0948E1
:101E3000FFF74CFA2028F8D100BF002401E0641C11
:101E400000BF012204490348FFF74CFC0028F6D1EB
:101E500000BF10BD200100200E00002000BFFEE7E3
:101E600002480068C0F30220704700000CED00E05B
:101E700010B5002804DB0A07130E054A135406E0C8
:101E80000A07140E034A00F00F031B1FD45410BDA1
:101E900000E400E018ED00E002E008C8121F08C1ED
:101EA000002AFAD170477047002001E001C1121FDB
:101EB000002AFBD17047000010B504460420FEF74D
:101EC000B7FF0148046010BD0400002030B504468F
:101ED000002504E04FF47A7000F004F86D1CA54270
:101EE000F8D330BD70B5034600224FF0E026756987
:101EF0000D4E366803FB06F44FF0E026B16910E0A2
:101F00004FF0E026B06988420BD0884202D20E1A08
:101F1000324402E02E1A0E4432440146A24200D35B
:101F200000E0EDE700BF70BD0400002000B585B003
:101F300000BF0D48806940F008000B4988610846E1
:101F4000806900F00800009000BF00BF20200190D1
:101F50000120029003900320049001A90348FEF79A
:101F6000D7F905B000BD000000100240000C014090
:101F7000FEF76AFB4820FFF79FFF4FF4E010FFF7E2
:101F800025FCFFF7D3FF4FF4E13000F08DF900F0AE
:101F900057F81E2000F074F9002000F00DF900BF82
:101FA00011E0012220210848FEF742FB4FF4FA70AD
:101FB000FFF78CFF002220210348FEF739FB4FF486
:101FC000FA70FFF783FFECE7000C014000B585B025
:101FD00000BF1848806940F004001649886108462F
:101FE000806900F00400009000BF00BF0120029053
:101FF000302001900320049001A90F48FEF788F9D2
:1020000000BF0C48806940F008000A498861084612
:10201000806900F00800009000BF00BF012002901E
:1020200003200190049001A90448FEF771F905B05E
:1020300000BD00000010024000080140000C0140FB
:1020400010B5FFF7C3FF00F01BF810BD0A4909687F
:10205000096809B9012100E0002121B14FF0FF31E9
:10206000064A116006E004490968C968C868034A5D
:102070004168116070470000200000204C000020E3
:1020800000B593B000BF3D48C06940F001003B4936
:10209000C8610846C06900F00100019000BF00BFA0
:1020A00000BF0846806940F00400886108468069E6
:1020B00000F00400019000BF00BF022010900F202C
:1020C0000F90032012900FA92D48FEF721F9002050
:1020D0000B900C900D900E9009900A904FF080405C
:1020E000284908601F20486063212648C1600021FC
:1020F000016181608161FEF70BFF4FF480500B900E
:102100000BA92048FEF76EFF002009900A9009A94C
:102110001C48FEF7BBFE1B48FEF72EFF1C2102A841
:10212000FEF753F860200290002003900490069080
:10213000002202A91348FEF7DBFF042202A911487E
:10214000FEF7D6FF082202A90E48FEF7D1FF0C22A7
:1021500002A90C48FEF7CCFF00210A48FFF74AF815
:1021600004210848FFF746F808210648FFF742F81F
:102170000C210448FFF73EF813B000BD00100240E8
:10218000000801403002002018B90A4A1268516361
:102190000EE0042803D1074A1268916308E008287A
:1021A00003D1044A1268D16302E0024A1268116442
:1021B000704700003002002010B5044634B1012CF5
:1021C00019D0022C41D0032C54D129E00122022144
:1021D0002948FEF72DFA002201212748FEF728FAA8
:1021E000012220212548FEF723FA0022102123484E
:1021F000FEF71EFA3EE0012211461F48FEF718FACC
:10220000002202211C48FEF713FA012210211B486C
:10221000FEF70EFA002220211848FEF709FA29E0FD
:10222000012211461448FEF703FA00220221124847
:10223000FEF7FEF9012220211048FEF7F9F90022ED
:1022400010210E48FEF7F4F914E0012202210A4899
:10225000FEF7EEF9002201210748FEF7E9F9012215
:1022600010210648FEF7E4F9002220210348FEF77A
:10227000DFF900BF00BF10BD000C014000080140A5
:1022800010B5044621460020FFF77EFF21460420BA
:10229000FFF77AFF21460820FFF776FF21460C2042
:1022A000FFF772FF10BD000010B5044609480A4947
:1022B00008600846446000218160C160016181615D
:1022C0000C214161FFF77EF9012204490248FFF722
:1022D00009FA10BD00380140200100200E00002046
:1022E00001460A69D1E901309860D1E901035860DB
:1022F0005068884201D188685060002008611068E9
:10230000401E10601068704742684A6093688B6096
:10231000936859609160086103685B1C03607047B3
:102320001248006818B10120114908601DE0002022
:102330000F4908600F480068B0FA80F0C0F11F0133
:1023400001EB81020C4B03EB820042685268426051
:1023500000F108024368934202D142685268426029
:102360004268D268054B1A6000BF704754000020D5
:102370004000002034000020680100201C000020E4
:102380002DE9F04100273A480068002863D1394818
:102390000068451C374805608DB93748D0F8008083
:1023A00036480068344908603448C0F80080344832
:1023B0000068401C32490860FFF748FE00BF314802
:1023C000006885423BD300BF2B480068006808B90D
:1023D000012000E0002020B14FF0FF3029490860C3
:1023E0002CE025480068C068C4686668B54202D21F
:1023F0002448066022E0201DFFF772FFA06A18B192
:1024000004F11800FFF76CFF94F82C1001208840AD
:102410001D49096808431C490860E16A01EB810114
:102420001A4A02EB8100211DFFF76EFF1849E06A8E
:102430000968C96A8842C7D30127C5E700BF1448A5
:102440000068C06A00EB8000104951F820000128A4
:1024500000D9012704E00F480068401C0D490860BE
:102460000D48006800B101273846BDE8F081000042
:102470005400002030000020200000202400002014
:10248000440000204C00002034000020680100209F
:102490001C0000203C000020400000200000000044
:1024A0000000000001020304060708090000000004
:1024B0000102030402030405060708090A0B0C0DB8
:1024C0000E0F101001020000E82400080000002098
:1024D00058000000981E0008402500085800002001
:1024E00020060000A81E00080024F40000000000E0
:1024F00000000000000000000000000010000000CC
:1025000001000000000000000000000000000000CA
:1025100000000000000000000000000000000000BB
:1025200000000000000000000000000000000000AB
:10253000000000000000000000000000000000009B
:04000005080000ED02
:00000001FF
