:020000040800F2
:10000000384D002021020008BF150008B715000870
:10001000BB1500085D040008F1190008000000008D
:10002000000000000000000000000000890100083E
:100030006104000800000000CD010008411600081E
:100040003B0200083B0200083B0200083B0200089C
:100050003B0200083B0200083B0200083B0200088C
:100060003B0200083B0200083B0200083B0200087C
:100070003B0200083B0200083B0200083B0200086C
:100080003B0200083B0200083B0200083B0200085C
:100090003B0200083B0200083B0200083B0200084C
:1000A0003B0200083B0200083B0200083B0200083C
:1000B0003B0200083B0200083B0200083B0200082C
:1000C0003B0200083B0200083B0200083B0200081C
:1000D0003B020008B11900083B0200083B0200087F
:1000E0003B0200083B0200083B02000800F002F857
:1000F00000F03AF80AA090E8000C82448344AAF188
:100100000107DA4501D100F02FF8AFF2090EBAE885
:100110000F0013F0010F18BFFB1A43F0010318473B
:10012000A0310000C0310000103A24BF78C878C167
:10013000FAD8520724BF30C830C144BF04680C60ED
:10014000704700000023002400250026103A28BF35
:1001500078C1FBD8520728BF30C148BF0B60704739
:100160001FB51FBD10B510BD00F032F91146FFF7E5
:10017000F7FF01F0C7FC00F064F903B4FFF7F2FFEA
:1001800003BC01F053FC0000224B19680868B0E87A
:10019000F00F80F30988BFF36F8F4FF0000080F3FA
:1001A00011884EF00D0E70470000000006480068F0
:1001B000006880F3088862B661B6BFF34F8FBFF363
:1001C0006F8F00DF00BF00BF08ED00E0EFF3098094
:1001D000BFF36F8F0F4B1A6820E9F00F106008B55E
:1001E0004FF0BF0080F31188BFF34F8FBFF36F8FC5
:1001F00002F0C4FB4FF0000080F31188BDE8084016
:1002000019680868B0E8F00F80F30988BFF36F8FB2
:10021000704700BF1C000020EFF30580704700000E
:100220000948804709480047FEE7FEE7FEE7FEE78A
:10023000FEE7FEE7FEE7FEE7FEE7FEE704480549C6
:10024000054A064B7047000075160008ED000008CF
:1002500038470020384D0020384900203849002018
:10026000704700000FB4044910B503AA029800F0CB
:100270004FF810BC5DF814FB08000020032A40F280
:10028000308010F0030C00F0158011F8013BBCF138
:10029000020F624498BF11F801CB00F8013B38BF50
:1002A00011F8013BA2F1040298BF00F801CB38BF5E
:1002B00000F8013B11F0030300F03C80083AC0F065
:1002C000088051F8043B083A51F804CBA0E8081024
:1002D000F5E7121D5CBF51F8043B40F8043BAFF357
:1002E0000080D20724BF11F8013B11F801CB48BFB1
:1002F00011F8012B24BF00F8013B00F801CB48BFE7
:1003000000F8012B70477047704770477047000036
:10031000074B70B50D467B4400F043F80446284671
:1003200000F052F810B14FF0FF3070BD204670BDA4
:100330008B17000010B5203AC0F00B80B1E81850C0
:10034000203AA0E81850B1E81850A0E81850BFF4BF
:10035000F5AF5FEA027C24BFB1E81850A0E818505E
:1003600044BF18C918C0BDE810405FEA827C24BFB2
:1003700051F8043B40F8043B08BF7047D20728BF40
:1003800031F8023B48BF11F8012B28BF20F8023B8F
:1003900048BF00F8012B704701694A1C02610878C8
:1003A000704700B58FB0CDE90131002105910549B5
:1003B0007944CDE903101146684600F02EF80FB0DD
:1003C00000BD0000E5FFFFFF007B00F080007047EC
:1003D000754600F03FF8AE4605006946534620F0EA
:1003E0000700854618B020B5FFF728FFBDE820407C
:1003F0004FF000064FF000074FF000084FF0000BE1
:1004000021F00701AC46ACE8C009ACE8C009ACE893
:10041000C009ACE8C0098D4670472DE9F041064699
:100420000024D6E90170F5688046304603E0414675
:10043000B847641C3046A8470028F8D12046BDE8DC
:10044000F08110B50446AFF300802046BDE81040AF
:10045000FFF793BE00487047D846002000BFFEE774
:1004600070470146002291F82100022808D004209C
:10047000886300BF002081F8200000BF0120704782
:100480000868006820F00E000B68186008680068B3
:1004900020F001000B68186091F84030012098406E
:1004A000CB6B5860012081F8210000BF002081F84B
:1004B000200000BF1046E2E770B50446002594F81E
:1004C0002100022803D00420A063012548E0206811
:1004D000006820F00E00216808602068006820F0A5
:1004E0000100216808601F492068884201D101206D
:1004F00026E01C4914312068884201D110201FE0F9
:10050000184928312068884201D1801518E0154922
:100510003C312068884201D1801411E011495031EA
:100520002068884202D14FF4803009E00D496431DF
:100530002068884202D14FF4801001E04FF08070B3
:10054000084908394860012084F8210000BF0020D4
:1005500084F8200000BF606B10B12046616B8847B3
:10056000284670BD080002402DE9F84703460022E6
:1005700094466EE14FF0010808FA02F4D1F80080C9
:1005800008EA0400A0427DD1DFF8DCA2D1F80480A3
:10059000A8EB0A09D0453AD014DCB8F1030F50D0CB
:1005A00009DCB8F1000F31D0B8F1010F1CD0B8F15F
:1005B000020F49D120E0B8F1110F18D0B8F1120F95
:1005C00042D11EE0B9F5881F25D006DCB9F5803F81
:1005D00020D0B9F5801F37D11AE0B9F5001F18D027
:1005E000B9F5041F30D117E0D1F80CC02DE0D1F8D7
:1005F0000C8008F1040C28E0D1F80C8008F1080CFC
:1006000023E0D1F80C8008F10C0C1EE000BF00BF05
:1006100000BF00BF00BF00BFD1F80880B8F1000FD5
:1006200002D14FF0040C0BE0D1F80880B8F1010FB3
:1006300003D14FF0080C1C6102E04FF0080C5C6124
:1006400003E04FF0000C00E000BF00BFFF2801D81E
:10065000984601E003F104084646FF2802D84FEA15
:10066000820803E0A2F108084FEA88084746D6F856
:1006700000804FF00F0909FA07F928EA09080CFA77
:1006800007F900E088E048EA0908C6F80080D1F8D8
:10069000048008F08058B8F1805F7DD100BFDFF89A
:1006A000CC81D8F8188048F00108DFF8C091C9F86B
:1006B0001880C846D8F8188008F00108CDF80080E6
:1006C00000BF00BF4FEAB9384FEA920958F82950E5
:1006D0004FEA82784FEA18794FF00F0808FA09F8C4
:1006E00025EA0805DFF88881434502D14FF000086C
:1006F00016E0DFF88081434502D14FF001080FE09A
:10070000DFF87481434502D14FF0020808E0DFF8BA
:100710006C81434502D14FF0030801E04FF004081B
:100720004FEA82794FEA197908FA09F848EA05058B
:10073000DFF84C814FEA920948F82950D1F804803B
:1007400008F48018B8F5801F0AD1DFF83881D8F88E
:10075000008048EA0008DFF82C91C9F8008009E021
:10076000DFF82081D8F8008028EA0008DFF814912B
:10077000C9F80080D1F8048008F40018B8F5001F0B
:1007800010D1DFF8008108F10408D8F8008048EAA9
:100790000008DFF8F09000E05AE009F10409C9F818
:1007A00000800DE0DFF8DC8008F10408D8F8008054
:1007B00028EA0008DFF8CC9009F10409C9F80080A4
:1007C000D1F8048008F40038B8F5003F0ED1DFF806
:1007D000B480A8F10408D8F8008048EA0008DFF8DF
:1007E000A490A9F10409C9F800800DE0DFF8948015
:1007F000A8F10408D8F8008028EA0008DFF88490FF
:10080000A9F10409C9F80080D1F8048008F48038FF
:10081000B8F5803F0ED1DFF86C80A8F10808D8F851
:10082000008048EA0008DFF85C90A9F10809C9F8DF
:1008300000800DE0DFF84C80A8F10808D8F80080AF
:1008400028EA0008DFF83C90A9F10809C9F80080FF
:10085000521CD1F8008028FA02F8B8F1000F7FF49A
:1008600089AEBDE8F88700000000111000100240BA
:1008700000080140000C014000100140001401403C
:1008800008000140080401400AB1016101E00B04C5
:1008900003617047014800687047000010000020A5
:1008A00010B50848006840F01000064908600320B1
:1008B00000F080F80F2000F007F800F02BF800207F
:1008C00010BD00000020024070B504460E480078BC
:1008D0004FF47A71B1FBF0F00C490968B1FBF0F507
:1008E000284600F0E5FB08B1012070BD102C07D2AE
:1008F00000222146501E00F01EF80548046001E069
:100900000120F2E70020F0E718000020000000209E
:1009100014000020704701460846002809DB00F05B
:100920001F0301229A4043099B0003F1E023C3F80F
:10093000002100BF70472DE9F05F80460D46164646
:10094000002701F057F8074639462A46334601F09A
:100950000700C0F1070ABAF1040F02D94FF0040AE8
:1009600001E0C0F1070AD14600F1040ABAF1070F0D
:1009700002D24FF0000A01E0A0F1030AD4464FF082
:10098000010A0AFA09FAAAF1010A0AEA020A0AFAAB
:100990000CFA4FF0010B0BFA0CFBABF1010B0BEA5D
:1009A000030B4AEA0B042146404601F02BF8BDE850
:1009B000F09F000000BF00F00702064B19684FF6D9
:1009C000FF031940044B0B4343EA0221014B19601A
:1009D00000BF70470CED00E00000FA0570B504465A
:1009E0000D460CB9012070BD5A48006800F00700A0
:1009F000A8420ED25748006820F007002843554906
:100A000008600846006800F00700A84201D00120F5
:100A1000E9E7207800F0020002281DD1207800F0DC
:100A20000400042805D14C48406840F4E0604A497D
:100A30004860207800F00800082805D14648406842
:100A400040F46050444948604348406820F0F0005A
:100A5000A168084340494860207800F0010078B35D
:100A60006068012806D13C48006800F4003090B965
:100A70000120B8E76068022806D13748006800F016
:100A8000007040B90120AEE73348006800F0020072
:100A900008B90120A7E73048406820F003006168EA
:100AA00008432D494860FFF7F5FE064609E0FFF7C9
:100AB000F1FE801B41F28831884202D9032092E77F
:100AC00007E02548406800F00C006168B0EB810F3A
:100AD000EDD12048006800F00700A8420ED91D485B
:100AE000006820F0070028431A490860084600689B
:100AF00000F00700A84201D0012074E7207800F040
:100B00000400042807D11448406820F4E060E1683C
:100B1000084311494860207800F00800082808D1EF
:100B20000D48406820F46050216940EAC1000A493C
:100B3000486000F03FF808494968C1F30311074ACB
:100B4000515CC8400649086006480068FFF7BCFED3
:100B5000002048E7002002400010024094320008C4
:100B600000000020140000200148006870470000C9
:100B70000000002000B5FFF7F7FF04494968C1F302
:100B80000221034A515CC84000BD00000010024031
:100B9000A432000800B5FFF7E7FF04494968C1F334
:100BA000C221034A515CC84000BD00000010024051
:100BB000A432000870B50021002200240023002088
:100BC000134D696801F00C05F5B1042D02D0082D14
:100BD00019D101E00F4819E00F4DC1F38346AB5D19
:100BE00001F4803555B10A4D6D68C5F340450B4E93
:100BF000725D084D5D43B5FBF2F402E0084D03FB66
:100C000005F4204602E000BF024800BF00BF70BDEF
:100C10000010024000127A00AC320008BC3200081A
:100C200000093D00F8B504460CB90120F8BD207854
:100C300000F00100002878D0F848406800F00C006F
:100C400004280CD0F548406800F00C00082811D1A9
:100C5000F248406800F48030B0F5803F0AD1EF4898
:100C6000006800F4003000285FD0606800285CD184
:100C70000120DBE700BF6068B0F5803F06D1E748A0
:100C8000006840F48030E549086028E0606858B9A1
:100C9000E248006820F48030E049086008460068B7
:100CA00020F4802008601AE06068B0F5A02F0BD116
:100CB000DA48006840F48020D84908600846006897
:100CC00040F4803008600AE0D448006820F48030A6
:100CD000D24908600846006820F48020086000BF00
:100CE000606888B1FFF7D6FD054606E0FFF7D2FD44
:100CF000401B642801D9032098E7C848006800F425
:100D000000300028F2D010E0FFF7C4FD054606E0F1
:100D1000FFF7C0FD401B642801D9032086E7BF48C8
:100D2000006800F400300028F2D1207800F00200C2
:100D3000022857D1B948406800F00C0050B1B748BC
:100D4000406800F00C00082818D1B448406800F44E
:100D5000803098B9B148006800F0020020B12069E5
:100D6000012801D0012061E7AC48006820F0F800BC
:100D7000616940EAC100A949086033E02069E8B12F
:100D80000120A7490860FFF785FD054606E0FFF74B
:100D900081FD401B022801D9032047E79F480068D6
:100DA00000F002000028F2D09C48006820F0F80013
:100DB000616940EAC1009949086013E00020984940
:100DC0000860FFF767FD054606E0FFF763FD401B7F
:100DD000022801D9032029E79048006800F00200AA
:100DE0000028F2D1207800F0080008282DD1A06951
:100DF000B8B101208B490860FFF74CFD054606E0BD
:100E0000FFF748FD401B022801D903200EE7834865
:100E1000406A00F002000028F2D0012000F0D0FB70
:100E200013E000207F490860FFF734FD054606E027
:100E3000FFF730FD401B022801D90320F6E6774872
:100E4000406A00F002000028F2D1207800F004008F
:100E5000042873D100277148C06900F0805070B930
:100E600000BF6E48C06940F080506C49C8610846B8
:100E7000C06900F08050009000BF00BF01276A48A1
:100E8000006800F48070B0B96748006840F4807072
:100E900065490860FFF7FEFC054606E0FFF7FAFC2F
:100EA000401B642801D90320C0E65F48006800F4B5
:100EB00080700028F2D000BFE068012806D15748B2
:100EC000006A40F001005549086227E0E06858B91F
:100ED0005248006A20F00100504908620846006A42
:100EE00020F00400086219E0E06805280BD14B48A7
:100EF000006A40F00400494908620846006A40F070
:100F0000010008620AE04548006A20F001004349F8
:100F100008620846006A20F00400086200BFE0682A
:100F2000A0B1FFF7B7FC054609E0FFF7B3FC401B93
:100F300041F28831884202D9032077E622E037481F
:100F4000006A00F002000028EFD012E0FFF7A2FCD8
:100F5000054608E0FFF79EFC401B41F288318842BD
:100F600001D9032062E62D48006A00F00200002843
:100F7000F0D1012F05D12948C06920F080502749C0
:100F8000C86100BFE069C8B32448406800F00C00A5
:100F9000082860D0E069022848D10020204908666E
:100FA000FFF778FC054606E0FFF774FC401B0228BB
:100FB00001D903203AE61948006800F000700028C3
:100FC000F2D1206AB0F5803F07D11448406820F480
:100FD0000030A168084311494860D4E9080108437A
:100FE0000E49496821F4741108430C4948600120F6
:100FF0000B490866FFF74EFC054607E03DE0FFF7AA
:1010000049FC401B022801D903200FE60348006871
:1010100000F000700028F2D02FE000000010024025
:101020000000424280044242007000400020144907
:101030000866FFF72FFC054606E0FFF72BFC401B78
:10104000022801D90320F1E50E48006800F0007085
:101050000028F2D111E0E069012800D1E6E5094855
:10106000466806F48031206A814204D106F470118A
:10107000606A814201D00120D8E50020D6E5000059
:101080000000424200100240042808D14FF0E02145
:10109000096941F004014FF0E022116107E04FF0CF
:1010A000E021096921F004014FF0E022116170474D
:1010B00070B504462546681EB0F1807F01D301203B
:1010C0000FE0681E4FF0E02148610F214FF0FF3024
:1010D00000F098FC00204FF0E021886107200861B3
:1010E000002070BD7047704701460022002391F830
:1010F000412091F8423042EA030070472DE9F84F51
:101100000446206805682068C668206847694FF073
:101110000009CA4605F00F09B9F1000F0AD105F020
:10112000200038B106F0200020B1204600F0F3FA8C
:10113000BDE8F88FB9F1000F7BD007F0010018B9B6
:1011400006F49070002874D005F0010030B106F468
:10115000807018B1606C40F00100606405F004001C
:1011600030B107F0010018B1606C40F0020060641B
:1011700005F0020030B107F0010018B1606C40F0DA
:101180000400606405F0080048B106F0200010B9C2
:1011900007F0010018B1606C40F008006064606CFA
:1011A000002845D005F0200028B106F0200010B13D
:1011B000204600F0B0FA20684069C0F3801A606CE5
:1011C00000F0080010B9BAF1000F2CD0204600F052
:1011D0005CFA2068406900F0400000B300BF00BF27
:1011E0002168143151E8001F21F0400021681431BA
:1011F00041E80002002AF3D100BFE06B50B177480C
:10120000E16B4863E06BFFF757F988B1E06B416B26
:1012100088470DE02046FFF766FF09E009E0204619
:10122000FFF761FF04E02046FFF75DFF00206064E8
:101230007EE7206B012877D105F01000002873D0DD
:1012400006F010000028FAD000BF002000902068AF
:101250000068009020684068009000BF00BF2068D0
:10126000406900F0400000285FD0E06B00684068F3
:101270001FFA80F8B8F1000F55D0A08D404552DD1F
:10128000A4F82E80E06B8069202843D000BF00BF07
:1012900021680C3151E8001F21F4807021680C3165
:1012A00041E80002002AF3D100BF00BF00BF21685F
:1012B000143151E8001F21F001002168143141E888
:1012C0000002002AF3D100BF00BF00BF2168143123
:1012D00051E8001F21F040002168143141E800026C
:1012E000002AF3D100BF202084F8420000202063B0
:1012F00000BF00BF21680C3151E8001F21F0100031
:1013000021680C3141E80002002AF3D100BFE06BF4
:10131000FFF7A7F802206063A08DE28D801A81B2EA
:101320002046FFF7DFFE03E742E0A08DE18D401A83
:101330001FFA80F8E08DD0B3B8F1000F37D000BFAE
:1013400000BF21680C3151E8001F21F49070216822
:101350000C3141E80002002AF3D100BF00BF00BFFA
:101360002168143151E8001F21F001002168143177
:1013700041E80002002AF3D100BF202084F8420097
:101380000020206300BF00BF21680C3151E8001F1E
:1013900021F0100021680C3141E80002002AF3D14D
:1013A00000BF0220606341462046FFF79BFEBFE678
:1013B00005F0800030B106F0800018B1204600F042
:1013C000C7FAB5E605F0400030B106F0400018B1AC
:1013D000204600F090F9ABE600BFA9E677160008BA
:1013E00010B504460CB9012010BDA06900B100E0A1
:1013F00000BF94F8410028B9002084F8400020463E
:1014000000F02AF8242084F841002068C06820F405
:1014100000502168C860204600F0FCF9206800698F
:1014200020F49040216808612068406920F02A007B
:10143000216848612068C06840F400502168C86095
:1014400000206064202084F8410084F842000020DD
:10145000606300BFC8E7000010B586B004462549A8
:101460002068884244D100BF2348806940F00400CE
:10147000214988610846806900F00400019000BF9E
:1014800000BF00BF0846806940F48040886108467C
:10149000806900F48040019000BF00BF00BF084693
:1014A000806940F0010088610846806900F0010011
:1014B000019000BF00BF4815029002200390012058
:1014C00004900320059002A90C48FFF74DF84FF453
:1014D000806002900020039002A90848FFF744F8BA
:1014E0002520FFF718FA032211462520FFF723FADB
:1014F00006B010BD00380140001002400008014055
:1015000070B504460D46164694F8420020280BD1CB
:1015100005B10EB9012070BD002020633246294676
:10152000204600F0F5F9F6E70220F4E71D4A0168CD
:10153000914236D11C49098801F4004189BB1A49FE
:10154000098801F4804171B1184909780A2903D04A
:101550000021154A118024E01349098841F4004113
:10156000114A11801DE0114909780D2906D10E4953
:10157000098841F480410C4A118012E00B49097836
:10158000094A1288C2F30D02094B99540649098889
:10159000491C054A118011460988C72901DD00212F
:1015A00011807047003801400C0000200E00002020
:1015B00088000020704700BFFEE700BFFEE77047CD
:1015C00008B508490968C9084FF47A72B1FBF2F10D
:1015D0004143009100BF00BF00994A1E00920029BC
:1015E000F9D108BD0000002030B58FB005460024B9
:1015F00001200590000406900020079002200C9026
:10160000C1030D910E9505A8FFF70CFB04460CB124
:1016100000BFFEE70F200090022001900020029002
:101620004FF4806003900020049002216846FFF789
:10163000D5F904460CB100BFFEE70FB030BD000085
:1016400010B500BFBF2080F31188BFF34F8FBFF3E9
:101650006F8F00BF01F046FC18B14FF08050044975
:10166000086000BF002080F3118800BF10BD00009B
:1016700004ED00E0704770B505466C6A0020E08517
:10168000E0842046FFF72FFD70BD00BF00BF026859
:101690000C3252E8002F22F4907102680C3242E8BA
:1016A0000013002BF3D100BF00BF00BF026814324B
:1016B00052E8002F22F001010268143242E80013C0
:1016C000002BF3D100BF016B01290ED100BF00BF79
:1016D00002680C3252E8002F22F0100102680C322E
:1016E00042E80013002BF3D100BF202180F8421004
:1016F00000210163704710B504462068C06820F0DF
:1017000040002168C860202084F841002046FFF78F
:1017100051FF002010BDF8B5044694F8420022287D
:1017200075D1A068B0F5805F0CD1206950B9002553
:10173000A66A20684068C0F308003080A06A801C58
:10174000A06215E0A56A0026A068B0F5805F03D00E
:10175000A06828B9206918B920684068287004E09A
:101760002068406800F07F002870A06A401CA062DA
:10177000E08D401E80B2E085002846D12068C06818
:1017800020F020002168C8602068C06820F48070C4
:101790002168C8602068406920F001002168486124
:1017A000202084F8420000206063206B012826D1AD
:1017B0000020206300BF00BF21680C3151E8001FEA
:1017C00021F0100021680C3141E80002002AF3D119
:1017D00000BF2068006800F0100010280AD100BF88
:1017E0000020009020680068009020684068009009
:1017F00000BF00BFA18D2046FFF774FC02E0204629
:10180000FFF794FE0020F8BD01E00020FBE7022076
:10181000F9E7000070B504462168096921F44051D8
:10182000E2681143226811612269A168114362696B
:1018300041EA02052168C96841F20C6291432943DB
:101840002268D1602168496921F44071A26911437D
:10185000226851612D4A2168914202D1FFF79AF91D
:1018600001E0FFF787F900EBC00101EB00116268AE
:101870009200B1FBF2F100EBC00202EB00126368D0
:101880009B00B2FBF3F26423B2FBF3F202EBC20360
:1018900003EB0212A1EB8201322202EB011164225E
:1018A000B1FBF2F101F0F00100EBC00202EB00121B
:1018B00063689B00B2FBF3F26423B2FBF3F201EB2B
:1018C000021200EBC00101EB001163689B00B1FB49
:1018D000F3F100EBC00303EB00136668B600B3FB43
:1018E000F6F36426B3FBF6F303EBC30606EB031330
:1018F000A1EB8301322303EB01116423B1FBF3F16C
:1019000001F00F0111442268916070BD0038014060
:1019100010B5034699629A85DA8500205864222022
:1019200083F84200186928B11868C06840F48070D4
:101930001C68E0601868406940F001001C68606144
:101940001868C06840F020001C68E060002010BDEE
:10195000014691F84100212828D18868B0F5805FC0
:101960000BD1086948B90A6A1088C0F308000B68EF
:101970005860086A801C086205E00B6A581C0862FF
:1019800018780B685860C88C401E80B2C88458B95B
:101990000868C06820F080000B68D8600868C068DC
:1019A00040F040000B68D860002070470220FCE740
:1019B00010B500240C48FFF7A1FB00BF01E0641C38
:1019C00000BF0948FFF790FB2028F8D100BF002492
:1019D00001E0641C00BF012204490348FFF790FDA9
:1019E0000028F6D100BF10BD500100200E000020DD
:1019F00000BFFEE702480068C0F302207047000005
:101A00000CED00E010B5002804DB0A07130E054AB0
:101A1000135406E00A07140E034A00F00F031B1FBD
:101A2000D45410BD00E400E018ED00E000BF7047A2
:101A300010B504460420FFF727FB0148046010BDE1
:101A40000400002030B50446002504E04FF47A700D
:101A500000F004F86D1CA542F8D330BD70B5034604
:101A600000224FF0E02675690D4E366803FB06F440
:101A70004FF0E026B16910E04FF0E026B0698842EF
:101A80000BD0884202D20E1A324402E02E1A0E44C3
:101A900032440146A24200D300E0EDE700BF70BD32
:101AA0000400002000BF054A126802F04002002A2C
:101AB000F9D0C2B2014B1B1D1A60704700380140BB
:101AC00000B585B000BF0D48806940F008000B49A3
:101AD00088610846806900F00800009000BF00BFE0
:101AE000202001900120029003900320049001A97E
:101AF0000348FEF739FD05B000BD000000100240AC
:101B0000000C01400EB5FEF7CBFE4820FFF790FF1A
:101B10004FF4E010FFF768FDFFF7D2FF4FF4E1301C
:101B200000F06CFD15A0FEF79DFB0020029002A8BE
:101B3000022100238022CDE9001014A1164801F0F3
:101B40008BF90446012C02D014A0FEF78BFB00F0A9
:101B5000D5FE11E0012220211548FEF795FE4FF435
:101B6000FA70FFF76FFF002220211148FEF78CFE6C
:101B70004FF4FA70FFF766FFECE7000072756E6EC7
:101B8000696E672E2E2E0D0A0000000076546573D4
:101B9000745461736B000000DD2900085461736B9D
:101BA0004372656174654661696C65640A00000092
:101BB000000C01402DE9F04105460E461C4807681F
:101BC0001C480068001D00F035FD50B91948006838
:101BD00090F82C1001208840174909688143164865
:101BE0000160681C38B936B112480168091D1348F4
:101BF00000F05EFD1AE07C190E4800684460BC42AB
:101C000007D20C480168091D0D48006800F036FD38
:101C10000CE008480168091D0A48006800F02EFD24
:101C200009480068844201D207480460BDE8F08199
:101C3000300000201C000020340000209C02002006
:101C400024000020200000204C00002010B5044695
:101C500000F03AFD23480068401C224908602248F1
:101C6000006840B9204804600846006801280DD18A
:101C700000F0C4F90AE01D48006838B91A48006845
:101C8000C06AE16A884201D81748046018480068B1
:101C9000401C1749086094F82C1001208840154911
:101CA0000968084313490860E16A01EB8101124A9F
:101CB00002EB8100211D00F0FBFC00F017FD0B483A
:101CC000006868B108480068C06AE16A884207D2C3
:101CD0004FF0805009490860BFF34F8FBFF36F8FFB
:101CE00010BD00002C0000201C0000203800002047
:101CF0004800002034000020E801002004ED00E04E
:101D000010B500F0E1FC10480068D0B90F4800F0B1
:101D1000A5FC0F4800F0A2FC0C480E4908600C48D6
:101D20000D490860002210210A2000F073FE0649C8
:101D300008600846006820B108A10348006800F068
:101D400013FD00F0D3FC10BD60000020B0020020A5
:101D5000C4020020580000205C000020546D725125
:101D60000000000070B523E000F000FE134800689A
:101D700008B9012000E00020054601F0C3F9BDB913
:101D800000F0A2FC0D48C068C468201D00F052FCA1
:101D90000B480068401E0A4908600A480068401E57
:101DA0000849086000F0A2FC204600F060F800BF7F
:101DB000044800680028D7D170BD000088020020C8
:101DC0002C0000202800002070B504460D46206C31
:101DD00070B1216CE0680844E0606168E0688842A6
:101DE00001D32068E0602846226CE168FEF746FADD
:101DF00070BD2DE9F04104460F4615464FF000082E
:101E0000A66B206C40B9206860BB606801F0F8F8F0
:101E100080460020606025E07DB93946226CA068CC
:101E2000FEF72CFA216CA0680844A060D4E90110E8
:101E3000884217D32068A06014E03946226CE0681D
:101E4000FEF71CFA216CE068401AE0602168E06847
:101E5000884203D2216C6068401AE060022D01D1F3
:101E600006B1761E701CA0634046BDE8F08110B537
:101E70000446206B00F04AFC204600F047FC10BDF1
:101E80000146084A126812680AB9012200E00022DD
:101E90000A600A6822B9034A1268D268106800E032
:101EA000002070475800002030B54FF48843174891
:101EB00000F007042CB1C01D20F00700134C041BD8
:101EC0001B1B0246124C22600024114D6C60D0187E
:101ED000083820F007000F4C206000240D4D2D68BD
:101EE0006C600C4D2D682C601146441A4C60094CF6
:101EF00024680C60084D4C682C60084D4C682C60C0
:101F00004FF00044064D2C6030BD0000D802002088
:101F10006C000020740000207C000020780000206D
:101F20008000002000BFFFF71DFF06480068012861
:101F3000F9D94FF0805004490860BFF34F8FBFF3C9
:101F40006F8FF0E7E801002004ED00E02DE9F0419B
:101F500006460D4617469846069C0DB9246000E0DB
:101F60002760E66325640121204600F01DFE002065
:101F7000A064BDE8F0812DE9FF5F80460F469146E1
:101F8000DDE90E6A109CA9F10100216B01EB800BC9
:101F90002BF0070B002507E0795D04F13400415573
:101FA000785D00B902E06D1C102DF5D300BF002153
:101FB00043200155052E00D30426E6626664002006
:101FC000A064201D00F057FB04F1180000F053FB43
:101FD0002461C6F10500A06164620020E06484F819
:101FE000500041465846039A00F0F6FA2060BAF1D4
:101FF000000F01D0CAF80040BDE8FF9F10B50024D3
:1020000007E004EB84010F4A02EB810000F026FB9D
:10201000641C052CF5D30C4800F020FB0B4800F0A5
:102020001DFB0B4800F01AFB0A4800F017FB0A489A
:1020300000F014FB04480949086004480849086096
:1020400010BD0000E80100204C02002060020020CA
:1020500074020020880200209C0200202000002042
:102060002400002010B50146164800E0006803680F
:102070008B42FBD30246436813448B4204D143682E
:102080004C682344436001460A464B681344046885
:10209000A34211D10C4C03682468A34208D04B68BA
:1020A0000468646823444B6003681B680B6005E0A8
:1020B000054B1B680B6001E003680B60884200D091
:1020C000016010BD6C000020740000202DE9F0417B
:1020D00004460D4616461F464FF000086560246111
:1020E000B5420CD8F01BA169884202D34FF0010819
:1020F00011E0211D0948006800F0C0FA0BE0BE4263
:1021000004D2BD4202D34FF0010804E0211D04486F
:10211000006800F0B3FA4046BDE8F0815C000020A2
:102120005800002070B5054600F0CEFAA86B08B93B
:10213000012400E0002400F0D9FA204670BD70B5FB
:10214000054600F0C1FAA86BE96B884201D1012471
:1021500000E0002400F0CAFA204670BD2DE9F341EA
:102160000D460098846C0027A06BE16B88421BD25F
:1021700094F945602A4669462046FFF73AFE07462D
:10218000701C60B9606A08B9012000E0002050B9F5
:1021900004F1240000F076FF28B1012703E0701C51
:1021A00040B284F8450000BF3846BDE8FC8100001D
:1021B000F8B505460E4610480068C068C468201D82
:1021C00000F038FAE069012811D1A06941192B46C5
:1021D00032462046FFF77AFF48B1002003462A46E0
:1021E00001460090204601F01FF8074600BF204638
:1021F000616A8847F8BD000058000020F0B587B03C
:1022000056E00398002805DA04AED6E90020B1684C
:10221000904700BF039800284ADB059C606908B915
:10222000012000E0002010B9201D00F003FA02A8F0
:1022300000F0A0F8054603980A2837D2DFE800F03E
:102240000905072527320608262800BF00BF00BF62
:1022500000BF0498A269811803462A462046FFF76A
:1022600035FF88B12046616A8847E06901280BD1B3
:10227000002000900498A1694218002319462046C6
:1022800000F0D2FF074600BF11E000BF0FE000BF23
:102290000498A061A06941192B462A462046FFF701
:1022A00015FF04E0204600F031FA00E000BF00BF57
:1022B00000231A4603A90448006800F0C7FB002861
:1022C0009FD107B0F0BD000060000020F8B50546C2
:1022D0000C4600F04BFB684600F04CF806460098B0
:1022E00020BB44B9B54206D800F00CFF3146284661
:1022F000FFF75EFF1CE03CB10E480068006808B9BB
:10230000012000E000200446A91B22460A4800687C
:1023100000F040FA00F0F6FE50B94FF08050074947
:102320000860BFF34F8FBFF36F8F01E000F0EAFE4C
:10233000F8BD00005C0000206000002004ED00E01B
:102340000A490968096809B9012100E0002121B1A1
:102350004FF0FF31064A116006E004490968C96878
:10236000C868034A416811607047000020000020DF
:102370004C00002070B5044600F0AEFD054607484D
:102380000068854204D200F00BF80120206001E0D3
:102390000020206001480560284670BD68000020CC
:1023A0002DE9F84326E01D480068C06805681B4811
:1023B0000068C068C468201D00F03CF92046616ACE
:1023C0008847E069012815D1A0694619AE4207D9AE
:1023D00066602461211D1148006800F04FF909E092
:1023E000002003462A4601460090204600F01CFFCC
:1023F000804600BF09480068006808B9012000E075
:1024000000200028CFD00548076805480068034928
:10241000086003480760BDE8F8830000580000200A
:102420005C00002000BFBF2080F31188BFF34F8FF6
:10243000BFF36F8F00BF00BFFEE708B500BF68465F
:10244000FFF71EFD044620460099FFF73FFFFFF708
:10245000D5FEF4E770B5044600F036F994F945501E
:102460001AE0A06C38B100212046FFF777FE88B152
:1024700000F0B6F90EE0606A08B9012000E0002023
:1024800038B904F1240000F0FDFD18B100F0A8F9FE
:1024900000E003E0681E45B2002DE2DC00BFFF2033
:1024A00084F8450000F022F900F00EF994F9445048
:1024B00010E0206908B9012000E0002048B904F1CB
:1024C000100000F0DFFD08B100F08AF9681E45B287
:1024D00000E001E0002DECDC00BFFF2084F84400A8
:1024E00000F004F970BD00002DE9F04105464FF001
:1024F000000800F03BFA2B48006808B9FFF7D4FC4D
:10250000294800682840002847D145B1083505F022
:10251000070020B105F00700C0F108000544002DB8
:102520003BD022480068854237D8214E30460468A7
:1025300001E0264624686068A84202D2206800288C
:10254000F7D118480068844227D0306800F10808A5
:10255000206830606068401B102807D967196068E0
:10256000401B786065603846FFF77CFD0F49606866
:102570000968081A0D490860084600680D4909688D
:10258000884203D2094800680A4908600649606821
:102590000968084360600020206000F0B3FD4046F9
:1025A000BDE8F08174000020800000207800002049
:1025B0006C0000207C0000200648006830B105490E
:1025C000096801F14800896C491C016001480068F4
:1025D000704700001C000020001F4FF08073036054
:1025E000001F21F001030360001F034B0360143838
:1025F00002602038704700002524000810B504460A
:1026000009480A4908600846446000218160C160A9
:10261000016181610C214161FEF7E2FE0122044962
:102620000248FEF76DFF10BD003801405001002048
:102630000E00002001460A69D1E901309860D1E915
:10264000010358605068884201D1886850600020BA
:1026500008611068401E10601068704700F10801A2
:1026600041604FF0FF31816000F10801C1600161FC
:1026700000210160704700210161704710B50246DA
:102680000B685C1C0CB9106907E002F1080000E05F
:102690004068446824689C42FAD944684C604C689D
:1026A000A160886041600A611468641C146010BDF8
:1026B00042684A6093688B609368596091600861D2
:1026C00003685B1C0360704700BFBF2080F3118864
:1026D000BFF34F8FBFF36F8F00BF03480068401CEC
:1026E0000149086070470000840000200648006827
:1026F000401E054908600846006820B9002080F3A4
:10270000118800BF00BF70478400002070B50646E6
:102710003546D6B1083D2C460C496068096808402A
:1027200098B1206888B90949606809688843606081
:1027300000F01CF90649606809680844044908600B
:102740002046FFF78FFC00F0DDFC70BD800000200C
:102750007800002003484FF0E0214861072008611D
:10276000704700003F190100024600200BE0084BB3
:1027700053F8303033B9064B43F8301003EBC00345
:102780005A6002E0401C0A28F1D300BF70470000E5
:10279000980100202DE9F04105460E4617462C46CB
:1027A000FFF792FF94F94400401C10B9002084F810
:1027B000440094F94500401C10B9002084F84500FD
:1027C000FFF794FFA06B28B93A46314604F1240084
:1027D00000F01CF82046FFF73DFEBDE8F081000048
:1027E00001200149086070474000002070B505468F
:1027F0000C460548016818312846FFF73FFF0121C4
:102800002046FFF7D7F970BD1C00002070B50646C2
:102810000D4614460648016818313046FFF748FF58
:102820000CB14FF0FF3521462846FFF7C3F970BDC4
:102830001C00002070B505462C46002D4BD02649C3
:10284000E06A0968C96A884245D2A06900F0004080
:1028500028B921480068C06AC0F10500A061E16A9A
:1028600001EB81011D4A02EB81016069884201D1BF
:10287000012000E0002050B3201DFFF7DBFE78B9F7
:10288000E06A00EB8000154951F8200040B994F847
:102890002C100120884012490968814310480160CA
:1028A0000D480068C06AE06294F82C10012088404E
:1028B0000B49096808430A490860E16A01EB810194
:1028C000064A02EB8100211DFFF7F2FE03E00248F9
:1028D0000068C06AE06270BD1C000020E8010020B2
:1028E0003400002003490968016003490968416018
:1028F0007047000044000020300000201CB5144840
:1029000000210B468022CDE9001012A1134800F0EF
:10291000A3FA0446012C02D100F068FC0446012C05
:1029200014D100BFBF2080F31188BFF34F8FBFF3D6
:102930006F8F00BF4FF0FF3009490860012009493F
:10294000086000200849086000F04AF81CBD00003B
:102950005000002049444C4500000000251F00089D
:102960004C000020380000203000002002480068A1
:10297000401C01490860704754000020124800685C
:1029800018B10120114908601DE000200F490860BE
:102990000F480068B0FA80F0C0F11F0101EB81021E
:1029A0000C4B03EB820042685268426000F108025F
:1029B0004368934202D14268526842604268D268DA
:1029C000054B1A6000BF70475400002040000020F3
:1029D00034000020E80100201C00002000BFFEE7BA
:1029E00010B50A48006840F47F00084908600846AE
:1029F000006840F07F400860FFF7ACFE002004490B
:102A00000860FDF7D3FB002010BD000020ED00E0C2
:102A1000840000202DE9F84307460D4690460DB985
:102A2000002601E007FB05F606F14C00FFF75CFD10
:102A3000044644B104F14C0943464A462946384607
:102A40000094FFF783FA2046BDE8F8832DE9FF479D
:102A500082B0054689461E464FF0000A2C4600BF4C
:102A6000FFF732FED4F83880B8F1000F3BD0E768AA
:102A700049462046FFF7A8F9DEB9A8F10100A06396
:102A8000206810B9FFF798FD6060206908B901203F
:102A900000E0002008BB04F1100000F0F3FAE0B100
:102AA0004FF080503F490860BFF34F8FBFF36F8FE7
:102AB00013E0E760606A08B9012000E0002060B917
:102AC00004F1240000F0DEFA38B14FF080503549AF
:102AD0000860BFF34F8FBFF36F8FFFF707FE012032
:102AE00006B0BDE8F087049818B9FFF7FFFD002095
:102AF000F6E7BAF1000F04D16846FFF7F3FE4FF096
:102B0000010AFFF7F3FDFFF731FFFFF7DDFD94F951
:102B10004400401C10B9002084F8440094F945009A
:102B2000401C10B9002084F84500FFF7DFFD04A920
:102B3000684600F063F940BB2046FFF7F3FAF0B1B6
:102B4000206830B9FFF7C0FD6068FFF773FEFFF73C
:102B5000CDFD04F124000499FFF748FE2046FFF75D
:102B600079FC00F0CFFA00287FF47AAF4FF0805064
:102B70000C490860BFF34F8FBFF36F8F70E720469B
:102B8000FFF768FC00F0BEFA6AE72046FFF762FC38
:102B900000F0B8FA2046FFF7C5FA0028EED0002072
:102BA0009EE7000004ED00E070B505460E462C4699
:102BB000FFF78AFDD4E90F12206801FB0200606074
:102BC0000020A0632068A060E06B401E226C21689A
:102BD00000FB0210E060FF2084F8440084F8450008
:102BE0009EB9206908B9012000E00020A8B904F1CD
:102BF000100000F047FA80B14FF08050094908609A
:102C0000BFF34F8FBFF36F8F07E004F11000FFF7A2
:102C100025FD04F12400FFF721FDFFF767FD0120EA
:102C200070BD000004ED00E02DE9FF4383B00746CE
:102C300088461D464FF000093C4600BFFFF744FDA3
:102C4000A06BE16B884201D3022D38D12A46414660
:102C50002046FFF7CEF80646A06C68B1294620460C
:102C6000FFF77CFA28B34FF080503C490860BFF36F
:102C70004F8FBFF36F8F1CE0606A08B9012000E03E
:102C8000002068B904F1240000F0FCF988B14FF08D
:102C9000805032490860BFF34F8FBFF36F8F08E059
:102CA0003EB14FF080502D490860BFF34F8FBFF306
:102CB0006F8FFFF71BFD012007B0BDE8F08305987B
:102CC00018B9FFF713FD0020F6E7B9F1000F04D1A2
:102CD00001A8FFF707FE4FF00109FFF707FDFFF717
:102CE00045FEFFF7F1FC94F94400401C10B90020A8
:102CF00084F8440094F94500401C10B9002084F881
:102D00004500FFF7F3FC05A901A800F077F8F0B93A
:102D10002046FFF714FAA0B104F110000599FFF75F
:102D200065FD2046FFF796FB00F0ECF9002885D101
:102D30004FF0805009490860BFF34F8FBFF36F8F8A
:102D40007CE72046FFF786FB00F0DCF976E72046BB
:102D5000FFF780FB00F0D6F90020ADE704ED00E0BE
:102D60002DE9F05F06468A4615461F46344600BFE9
:102D7000BF21EFF3118081F31188BFF34F8FBFF3B1
:102D80006F8F00BF8146A06BE16B884201D3022F99
:102D90002BD194F945B03A4651462046FFF729F821
:102DA0000BF10100C8B9A06C40B139462046FFF7CD
:102DB000D5F9B8B1B5B10120286013E0606A08B94F
:102DC000012000E0002068B904F1240000F05AF965
:102DD00040B13DB10120286004E00BF1010040B298
:102DE00084F845004FF0010801E04FF0000800BFF3
:102DF00089F3118800BF4046BDE8F09F70B50446D6
:102E00000D46FFF761FC124802682868401C08B9AB
:102E1000002619E00F4920680968884204D06068DC
:102E2000904201D801260FE06068101A2968884294
:102E300009D228686168511A401A28602046FFF7B5
:102E400051FD002600E00126FFF750FC304670BD22
:102E500030000020440000202DE9FF4F85B080465F
:102E600089461746DDE912ABB800FFF73DFB064681
:102E700056B15420FFF738FB04460CB1266304E03A
:102E80003046FFF743FC00E000247CB10020CDE990
:102E900000ABCDE902403A4649464046089BFFF761
:102EA0006AF82046FEF7D2FE012501E04FF0FF351B
:102EB000284609B0BDE8F08F0549096809B9012025
:102EC00005E00449096809B9022000E000207047C4
:102ED00038000020540000200149086870470000B5
:102EE000300000202DE9F04100273A480068002812
:102EF00063D139480068451C374805608DB93748AB
:102F0000D0F8008036480068344908603448C0F87A
:102F1000008034480068401C32490860FFF710FA0E
:102F200000BF3148006885423BD300BF2B48006892
:102F3000006808B9012000E0002020B14FF0FF3008
:102F4000294908602CE025480068C068C4686668A4
:102F5000B54202D22448066022E0201DFFF76AFB3A
:102F6000A06A18B104F11800FFF764FB94F82C1064
:102F7000012088401D49096808431C490860E16A2E
:102F800001EB81011A4A02EB8100211DFFF790FB42
:102F90001849E06A0968C96A8842C7D30127C5E7AA
:102FA00000BF14480068C06A00EB8000104951F867
:102FB0002000012800D9012704E00F480068401CC8
:102FC0000D4908600D48006800B101273846BDE88A
:102FD000F08100005400002030000020200000207C
:102FE00024000020440000204C0000203400002079
:102FF000E80100201C0000203C00002040000020D0
:1030000070B505462C460026ADB3A06C401EA064EA
:10301000616CE06A88422ED0A06C60BB201DFFF777
:1030200009FB78B9E06A00EB8000144951F82000F0
:1030300040B994F82C100120884011490968814357
:103040000F480160606CE062E06AC0F10500A061B9
:1030500094F82C1001208840094909680843084960
:103060000860E16A01EB8101044A02EB8100211D45
:10307000FFF71EFB0126304670BD0000E80100206E
:103080003400002070B50646F068C46804F11800EA
:10309000FFF7D0FA15480068A8B9201DFFF7CAFA53
:1030A00094F82C1001208840114909680843104900
:1030B0000860E16A01EB81010E4A02EB8100211DEB
:1030C000FFF7F6FA04E004F118010B48FFF7F0FAF5
:1030D0000A49E06A0968C96A884204D901250120C1
:1030E0000749086000E00025284670BD5400002014
:1030F00034000020E8010020740200201C000020A1
:103100004000002070B500240026FFF7DDFA2E48AD
:103110000068401E2C4908600846006800284FD10E
:103120002A48006800284BD024E02948C068C468B9
:1031300004F11800FFF77EFA201DFFF77BFA94F8E0
:103140002C10012088402349096808432149086060
:10315000E16A01EB8101204A02EB8100211DFFF7AA
:10316000A7FA1E49E06A0968C96A884202D30120A9
:103170001B4908601648006808B9012000E00020DB
:103180000028D2D00CB1FFF7DBF81648056865B10E
:1031900000BFFFF7A7FE10B10120114908606D1EA6
:1031A000002DF6D100200F4908600D48006838B1A5
:1031B000012630070C490860BFF34F8FBFF36F8FB4
:1031C000FFF794FA304670BD540000202C00002018
:1031D0007402002034000020E80100201C000020C0
:1031E000400000203C00002004ED00E01CB500245D
:1031F000FEF786FD0748006850B107480421002308
:103200008A01CDE9001005A10648FFF725FE044616
:1032100020461CBD6000002064000020546D722018
:10322000537663003B2400082DE9FF4705460C4612
:1032300016461F46DDF830804FF00009144800683C
:1032400010B3009401960295062C15DAFFF734FEB0
:10325000022808D10023424669460D480068FFF75E
:10326000E3FC814610E000231A46694608480068DE
:10327000FFF7DAFC814607E000233A466946044836
:103280000068FFF76DFD8146484604B0BDE8F08751
:1032900060000020000000000000000001020304A4
:1032A00006070809000000000102030402030405E8
:1032B000060708090A0B0C0D0E0F10100102000082
:1032C000E03200080000002088000000280100080B
:1032D0006833000888000020B04C0000440100085A
:1032E0000024F400000000000000000000000000C6
:1032F00000000000100000000100000000000000BD
:1033000000000000000000000000000000000000BD
:1033100000000000000000000000000000000000AD
:10332000000000000000000000000000000000009D
:10333000000000000000000000000000000000008D
:10334000000000000000000000000000000000007D
:10335000000000000000000000000000000000006D
:0833600000000000AAAAAAAABD
:04000005080000ED02
:00000001FF
