:020000040800F2
:10000000800500209901000809110008011100086D
:1000100005110008E1010008A91600080000000011
:1000200000000000000000000000000001010008C6
:10003000E501000800000000450100080514000863
:10004000B3010008B3010008B3010008B3010008C0
:10005000B3010008B3010008B3010008B3010008B0
:10006000B3010008B3010008B3010008B3010008A0
:10007000B3010008B3010008B3010008B301000890
:10008000B3010008B3010008B3010008B301000880
:10009000B3010008B3010008B3010008B301000870
:1000A000B3010008B3010008B3010008B301000860
:1000B000B3010008B3010008B3010008B301000850
:1000C000B3010008B3010008B3010008B301000840
:1000D000B301000879160008B3010008B301000855
:1000E000B3010008B3010008B3010008DFF80CD029
:1000F00000F064F800480047CD1700088005002094
:10010000224B19680868B0E8F00F80F30988BFF344
:100110006F8F4FF0000080F311884EF00D0E704786
:100120000000000006480068006880F3088862B696
:1001300061B6BFF34F8FBFF36F8F00DF00BF00BF0B
:1001400008ED00E0EFF30980BFF36F8F0F4B1A68E3
:1001500020E9F00F106008B54FF0BF0080F3118860
:10016000BFF34F8FBFF36F8F01F0C8FB4FF000005C
:1001700080F31188BDE8084019680868B0E8F00FFE
:1001800080F30988BFF36F8F704700BF1000002015
:10019000EFF3058070470000064880470648004797
:1001A000FEE7FEE7FEE7FEE7FEE7FEE7FEE7FEE727
:1001B000FEE7FEE739140008ED000008064C074D85
:1001C00006E0E06840F0010394E807009847103427
:1001D000AC42F6D3FFF78EFFBC230008DC230008F7
:1001E00000BFFEE770470146002291F82100022877
:1001F00008D00420886300BF002081F8200000BFE1
:10020000012070470868006820F00E000B68186035
:100210000868006820F001000B68186091F8403011
:1002200001209840CB6B5860012081F8210000BF6D
:10023000002081F8200000BF1046E2E770B50446B8
:10024000002594F82100022803D00420A063012592
:1002500048E02068006820F00E00216808602068EF
:10026000006820F00100216808601F49206888426A
:1002700001D1012026E01C4914312068884201D1B7
:1002800010201FE0184928312068884201D18015CC
:1002900018E015493C312068884201D1801411E0F2
:1002A000114950312068884202D14FF4803009E072
:1002B0000D4964312068884202D14FF4801001E07A
:1002C0004FF08070084908394860012084F8210007
:1002D00000BF002084F8200000BF606B10B12046F2
:1002E000616B8847284670BD080002402DE9F84739
:1002F0000346002294466EE14FF0010808FA02F42A
:10030000D1F8008008EA0400A0427DD1DFF8DCA229
:10031000D1F80480A8EB0A09D0453AD014DCB8F132
:10032000030F50D009DCB8F1000F31D0B8F1010F44
:100330001CD0B8F1020F49D120E0B8F1110F18D04C
:10034000B8F1120F42D11EE0B9F5881F25D006DCA6
:10035000B9F5803F20D0B9F5801F37D11AE0B9F543
:10036000001F18D0B9F5041F30D117E0D1F80CC028
:100370002DE0D1F80C8008F1040C28E0D1F80C80B5
:1003800008F1080C23E0D1F80C8008F10C0C1EE0F9
:1003900000BF00BF00BF00BF00BF00BFD1F8088092
:1003A000B8F1000F02D14FF0040C0BE0D1F8088037
:1003B000B8F1010F03D14FF0080C1C6102E04FF0BF
:1003C000080C5C6103E04FF0000C00E000BF00BFD0
:1003D000FF2801D8984601E003F104084646FF28AB
:1003E00002D84FEA820803E0A2F108084FEA880821
:1003F0004746D6F800804FF00F0909FA07F928EAB6
:1004000009080CFA07F900E088E048EA0908C6F88C
:100410000080D1F8048008F08058B8F1805F7DD169
:1004200000BFDFF8CC81D8F8188048F00108DFF869
:10043000C091C9F81880C846D8F8188008F001089B
:10044000CDF8008000BF00BF4FEAB9384FEA9209EB
:1004500058F829504FEA82784FEA18794FF00F0880
:1004600008FA09F825EA0805DFF88881434502D132
:100470004FF0000816E0DFF88081434502D14FF0CD
:1004800001080FE0DFF87481434502D14FF0020804
:1004900008E0DFF86C81434502D14FF0030801E02A
:1004A0004FF004084FEA82794FEA197908FA09F8FF
:1004B00048EA0505DFF84C814FEA920948F82950CF
:1004C000D1F8048008F48018B8F5801F0AD1DFF84D
:1004D0003881D8F8008048EA0008DFF82C91C9F884
:1004E000008009E0DFF82081D8F8008028EA0008C1
:1004F000DFF81491C9F80080D1F8048008F40018DE
:10050000B8F5001F10D1DFF8008108F10408D8F811
:10051000008048EA0008DFF8F09000E05AE009F1B6
:100520000409C9F800800DE0DFF8DC8008F1040858
:10053000D8F8008028EA0008DFF8CC9009F1040917
:10054000C9F80080D1F8048008F40038B8F5003FFD
:100550000ED1DFF8B480A8F10408D8F8008048EA8A
:100560000008DFF8A490A9F10409C9F800800DE0A3
:10057000DFF89480A8F10408D8F8008028EA000881
:10058000DFF88490A9F10409C9F80080D1F804804B
:1005900008F48038B8F5803F0ED1DFF86C80A8F100
:1005A0000808D8F8008048EA0008DFF85C90A9F154
:1005B0000809C9F800800DE0DFF84C80A8F10808B0
:1005C000D8F8008028EA0008DFF83C90A9F1080973
:1005D000C9F80080521CD1F8008028FA02F8B8F15E
:1005E000000F7FF489AEBDE8F8870000000011100D
:1005F0000010024000080140000C014000100140C2
:100600000014014008000140080401400AB10161E2
:1006100001E00B0403617047014800687047000067
:100620000400002010B50848006840F0100006499A
:100630000860032000F070F80F2000F007F800F0C9
:100640002BF8002010BD00000020024070B50446C9
:100650000E4800784FF47A71B1FBF0F00C4909684C
:10066000B1FBF0F5284600F09BFB08B1012070BDFE
:10067000102C07D200222146501E00F00EF805482B
:10068000046001E00120F2E70020F0E70C00002008
:10069000000000200800002070472DE9F05F804630
:1006A0000D461646002701F001F8074639462A464E
:1006B000334601F00700C0F1070ABAF1040F02D96E
:1006C0004FF0040A01E0C0F1070AD14600F1040A24
:1006D000BAF1070F02D24FF0000A01E0A0F1030ABD
:1006E000D4464FF0010A0AFA09FAAAF1010A0AEA05
:1006F000020A0AFA0CFA4FF0010B0BFA0CFBABF1F1
:10070000010B0BEA030B4AEA0B042146404600F0BA
:10071000D5FFBDE8F09F000000BF00F00702064BC8
:1007200019684FF6FF031940044B0B4343EA0221BB
:10073000014B196000BF70470CED00E00000FA05A6
:1007400070B504460D460CB9012070BD5A480068CA
:1007500000F00700A8420ED25748006820F00700BA
:100760002843554908600846006800F00700A84281
:1007700001D00120E9E7207800F0020002281DD115
:10078000207800F00400042805D14C48406840F46B
:10079000E0604A494860207800F00800082805D148
:1007A0004648406840F460504449486043484068C7
:1007B00020F0F000A168084340494860207800F02C
:1007C000010078B36068012806D13C48006800F455
:1007D000003090B90120B8E76068022806D1374898
:1007E000006800F0007040B90120AEE733480068AF
:1007F00000F0020008B90120A7E73048406820F067
:100800000300616808432D494860FFF705FF06466D
:1008100009E0FFF701FF801B41F28831884202D9CD
:10082000032092E707E02548406800F00C0061686B
:10083000B0EB810FEDD12048006800F00700A8421E
:100840000ED91D48006820F0070028431A490860A7
:100850000846006800F00700A84201D0012074E7B4
:10086000207800F00400042807D11448406820F4E0
:10087000E060E168084311494860207800F0080012
:10088000082808D10D48406820F46050216940EAEA
:10089000C1000A49486000F019F808494968C1F3E5
:1008A0000311074A515CC8400649086006480068C1
:1008B000FFF7CCFE002048E7002002400010024075
:1008C000601B0008000000200800002070B5002117
:1008D0000022002400230020134D696801F00C055C
:1008E000F5B1042D02D0082D19D101E00F4819E00F
:1008F0000F4DC1F38346AB5D01F4803555B10A4D10
:100900006D68C5F340450B4E725D084D5D43B5FB08
:10091000F2F402E0084D03FB05F4204602E000BFBC
:10092000024800BF00BF70BD0010024000127A00F4
:10093000781B0008881B000800093D00F8B5044634
:100940000CB90120F8BD207800F00100002878D013
:10095000F848406800F00C0004280CD0F5484068C6
:1009600000F00C00082811D1F248406800F48030F3
:10097000B0F5803F0AD1EF48006800F4003000284D
:100980005FD0606800285CD10120DBE700BF6068B1
:10099000B0F5803F06D1E748006840F48030E54973
:1009A000086028E0606858B9E248006820F48030A8
:1009B000E04908600846006820F4802008601AE0DA
:1009C0006068B0F5A02F0BD1DA48006840F48020B1
:1009D000D84908600846006840F4803008600AE0A2
:1009E000D448006820F48030D24908600846006886
:1009F00020F48020086000BF606888B1FFF70CFE1B
:100A0000054606E0FFF708FE401B642801D90320D5
:100A100098E7C848006800F400300028F2D010E0E1
:100A2000FFF7FAFD054606E0FFF7F6FD401B6428D8
:100A300001D9032086E7BF48006800F40030002891
:100A4000F2D1207800F00200022857D1B94840685E
:100A500000F00C0050B1B748406800F00C000828C6
:100A600018D1B448406800F4803098B9B1480068A3
:100A700000F0020020B12069012801D0012061E7C7
:100A8000AC48006820F0F800616940EAC100A9495B
:100A9000086033E02069E8B10120A7490860FFF74A
:100AA000BBFD054606E0FFF7B7FD401B022801D954
:100AB000032047E79F48006800F002000028F2D0BA
:100AC0009C48006820F0F800616940EAC10099493B
:100AD000086013E0002098490860FFF79DFD054677
:100AE00006E0FFF799FD401B022801D9032029E702
:100AF0009048006800F002000028F2D1207800F051
:100B0000080008282DD1A069B8B101208B490860E0
:100B1000FFF782FD054606E0FFF77EFD401B022839
:100B200001D903200EE78348406A00F00200002844
:100B3000F2D0012000F026FC13E000207F4908607D
:100B4000FFF76AFD054606E0FFF766FD401B022839
:100B500001D90320F6E67748406A00F00200002839
:100B6000F2D1207800F00400042873D100277148E6
:100B7000C06900F0805070B900BF6E48C06940F095
:100B800080506C49C8610846C06900F080500090F0
:100B900000BF00BF01276A48006800F48070B0B948
:100BA0006748006840F4807065490860FFF734FDCD
:100BB000054606E0FFF730FD401B642801D90320FD
:100BC000C0E65F48006800F480700028F2D000BFE3
:100BD000E068012806D15748006A40F001005549F5
:100BE000086227E0E06858B95248006A20F0010026
:100BF000504908620846006A20F00400086219E0C3
:100C0000E06805280BD14B48006A40F004004949D0
:100C100008620846006A40F0010008620AE04548A0
:100C2000006A20F00100434908620846006A20F08B
:100C30000400086200BFE068A0B1FFF7EDFC0546C4
:100C400009E0FFF7E9FC401B41F28831884202D9F4
:100C5000032077E622E03748006A00F0020000280F
:100C6000EFD012E0FFF7D8FC054608E0FFF7D4FC10
:100C7000401B41F28831884201D9032062E62D48A9
:100C8000006A00F002000028F0D1012F05D12948A8
:100C9000C06920F080502749C86100BFE069C8B32F
:100CA0002448406800F00C00082860D0E069022861
:100CB00048D1002020490866FFF7AEFC054606E053
:100CC000FFF7AAFC401B022801D903203AE6194885
:100CD000006800F000700028F2D1206AB0F5803F73
:100CE00007D11448406820F40030A1680843114936
:100CF0004860D4E9080108430E49496821F4741199
:100D000008430C49486001200B490866FFF784FC42
:100D1000054607E03DE0FFF77FFC401B022801D9B4
:100D200003200FE60348006800F000700028F2D0AE
:100D30002FE00000001002400000424280044242C6
:100D400000700040002014490866FFF765FC054666
:100D500006E0FFF761FC401B022801D90320F1E502
:100D60000E48006800F000700028F2D111E0E06940
:100D7000012800D1E6E50948466806F48031206A7A
:100D8000814204D106F47011606A814201D00120D1
:100D9000D8E50020D6E500000000424200100240E5
:100DA00070B504462546681EB0F1807F01D301204E
:100DB0000FE0681E4FF0E02148610F214FF0FF3037
:100DC00000F07CFC00204FF0E021886107200861E2
:100DD000002070BD7047704701460022002391F843
:100DE000412091F8423042EA030070472DE9F84F64
:100DF0000446206805682068C668206847694FF087
:100E00000009CA4605F00F09B9F1000F0AD105F033
:100E1000200038B106F0200020B1204600F05DFB34
:100E2000BDE8F88FB9F1000F7BD007F0010018B9C9
:100E300006F49070002874D005F0010030B106F47B
:100E4000807018B1606C40F00100606405F004002F
:100E500030B107F0010018B1606C40F0020060642E
:100E600005F0020030B107F0010018B1606C40F0ED
:100E70000400606405F0080048B106F0200010B9D5
:100E800007F0010018B1606C40F008006064606C0D
:100E9000002845D005F0200028B106F0200010B150
:100EA000204600F01AFB20684069C0F3801A606C8D
:100EB00000F0080010B9BAF1000F2CD0204600F065
:100EC000C6FA2068406900F0400000B300BF00BFD0
:100ED0002168143151E8001F21F0400021681431CD
:100EE00041E80002002AF3D100BFE06B50B177481F
:100EF000E16B4863E06BFFF7A1F988B1E06B416BF0
:100F000088470DE02046FFF766FF09E009E020462C
:100F1000FFF761FF04E02046FFF75DFF00206064FB
:100F20007EE7206B012877D105F01000002873D0F0
:100F300006F010000028FAD000BF002000902068C2
:100F40000068009020684068009000BF00BF2068E3
:100F5000406900F0400000285FD0E06B0068406806
:100F60001FFA80F8B8F1000F55D0A08D404552DD32
:100F7000A4F82E80E06B8069202843D000BF00BF1A
:100F800021680C3151E8001F21F4807021680C3178
:100F900041E80002002AF3D100BF00BF00BF216872
:100FA000143151E8001F21F001002168143141E89B
:100FB0000002002AF3D100BF00BF00BF2168143136
:100FC00051E8001F21F040002168143141E800027F
:100FD000002AF3D100BF202084F8420000202063C3
:100FE00000BF00BF21680C3151E8001F21F0100044
:100FF00021680C3141E80002002AF3D100BFE06B08
:10100000FFF7F1F802206063A08DE28D801A81B2B3
:101010002046FFF7DFFE03E742E0A08DE18D401A96
:101020001FFA80F8E08DD0B3B8F1000F37D000BFC1
:1010300000BF21680C3151E8001F21F49070216835
:101040000C3141E80002002AF3D100BF00BF00BF0D
:101050002168143151E8001F21F00100216814318A
:1010600041E80002002AF3D100BF202084F84200AA
:101070000020206300BF00BF21680C3151E8001F31
:1010800021F0100021680C3141E80002002AF3D160
:1010900000BF0220606341462046FFF79BFEBFE68B
:1010A00005F0800030B106F0800018B1204600F055
:1010B000B2FAB5E605F0400030B106F0400018B1D4
:1010C000204600F0FAF9ABE600BFA9E63B140008A1
:1010D00070B504460D46164694F8420020280BD100
:1010E00005B10EB9012070BD0020206332462946AB
:1010F000204600F070FAF6E70220F4E770477047E8
:1011000000BFFEE700BFFEE7704770B5002410E0A7
:10111000204600F02FF9002000F020F9002504E01F
:10112000002000F00EF9681CC5B2802DF8DB601CB1
:10113000C4B2082CECDB70BD2DE9F04107460E4629
:101140001546384600F016F9304600F007F900243D
:1011500006E00E4901EB0511085D00F0F2F8641C91
:10116000082CF6DB791CC8B200F004F9304600F018
:10117000F5F8082406E0054901EB0511085D00F0CB
:10118000E0F8641C102CF6DBBDE8F081CB1D0008F4
:1011900000B585B000BF1348806940F008001149D0
:1011A00088610846806900F00800009000BF00BF19
:1011B0004FF4405001900120029000200390032042
:1011C000049001A90848FFF791F800224FF400515C
:1011D0000548FFF71BFA012211030348FFF716FA2F
:1011E00005B000BD00100240000C014010B5012206
:1011F00051031048FFF70AFA012000F08BFA012290
:1012000011030C48FFF702FA012000F083FA0022D4
:101210004FF400510748FFF7F9F9032000F07AFA7C
:1012200000224FF480510348FFF7F0F9782000F0D6
:101230001DF810BD000C014010B500224FF4005104
:101240000948FFF7E3F9012000F064FA01221103D5
:101250000548FFF7DBF9032000F05CFA0122510397
:101260000148FFF7D3F910BD000C014070B50446EA
:101270002546002623E000224FF480512248FFF744
:10128000C5F905F0800030B900224FF400511E4826
:10129000FFF7BCF904E0012251031B48FFF7B6F940
:1012A0006806050E012000F035FA012211031648E8
:1012B000FFF7ACF9012000F02DFA701CC6B2082E21
:1012C000D9DB00224FF480510F48FFF79FF901202E
:1012D00000F020FA012251030B48FFF797F9012093
:1012E00000F018FA012211030748FFF78FF90120D7
:1012F00000F010FA00224FF480510348FFF786F9FE
:10130000012000F007FA70BD000C014010B5002468
:1013100005E00449085D00F007F8601CC4B2192C10
:10132000F7DB10BD8A1B000810B50446FFF75EFF0F
:101330000020FFF79BFF2046FFF798FFFFF77CFF99
:1013400010BD10B50446FFF751FF4020FFF78EFF98
:101350002046FFF78BFFFFF76FFF10BD10B5044667
:10136000102141EA2410FFF7DFFF04F00F00FFF720
:10137000DBFF10BD10B5044604F1B001C8B2FFF7A1
:10138000D3FF10BD08B508490968C9084FF47A723F
:10139000B1FBF2F14143009100BF00BF00994A1E2A
:1013A00000920029F9D108BD0000002030B58FB0AF
:1013B00005460024012005900004069000200790B7
:1013C00002200C90C1030D910E9505A8FFF7B6FA07
:1013D00004460CB100BFFEE70F20009002200190F0
:1013E000002002904FF480600390002004900221BE
:1013F0006846FFF7A5F904460CB100BFFEE70FB041
:1014000030BD000010B500BFBF2080F31188BFF3CE
:101410004F8FBFF36F8F00BF00F0A0FA18B14FF0ED
:1014200080500449086000BF002080F3118800BF8D
:1014300010BD000004ED00E0704770B505466C6A11
:101440000020E085E0842046FFF7C5FC70BD00BFAA
:1014500000BF02680C3252E8002F22F4907102683B
:101460000C3242E80013002BF3D100BF00BF00BFD5
:101470000268143252E8002F22F00101026814328F
:1014800042E80013002BF3D100BF016B01290ED1FC
:1014900000BF00BF02680C3252E8002F22F010019A
:1014A00002680C3242E80013002BF3D100BF202168
:1014B00080F8421000210163704710B5044620688F
:1014C000C06820F040002168C860202084F84100F6
:1014D0002046FFF714FE002010BDF8B5044694F82E
:1014E0004200222875D1A068B0F5805F0CD1206938
:1014F00050B90025A66A20684068C0F30800308013
:10150000A06A801CA06215E0A56A0026A068B0F55C
:10151000805F03D0A06828B9206918B920684068A6
:10152000287004E02068406800F07F002870A06AFE
:10153000401CA062E08D401E80B2E085002846D1AC
:101540002068C06820F020002168C8602068C0685A
:1015500020F480702168C8602068406920F0010094
:1015600021684861202084F8420000206063206BDD
:10157000012826D10020206300BF00BF21680C3164
:1015800051E8001F21F0100021680C3141E80002F1
:10159000002AF3D100BF2068006800F01000102876
:1015A0000AD100BF002000902068006800902068E9
:1015B0004068009000BF00BFA18D2046FFF70AFCE5
:1015C00002E02046FFF79AFD0020F8BD01E0002070
:1015D000FBE70220F9E710B5034699629A85DA85A0
:1015E00000205864222083F84200186928B1186846
:1015F000C06840F480701C68E0601868406940F082
:1016000001001C6860611868C06840F020001C6818
:10161000E060002010BD014691F84100212828D14A
:101620008868B0F5805F0BD1086948B90A6A1088EC
:10163000C0F308000B685860086A801C086205E067
:101640000B6A581C086218780B685860C88C401EDA
:1016500080B2C88458B90868C06820F080000B6860
:10166000D8600868C06840F040000B68D86000206F
:1016700070470220FCE7000010B50948FFF7B6FBF1
:1016800000BF0748FFF7A8FB2028FAD100BF20229F
:1016900004490348FFF71CFD0028F8D110BD0000E5
:1016A000180100206001002000BFFEE7024800682A
:1016B000C0F30220704700000CED00E010B50028D8
:1016C00004DB0A07130E054A135406E00A07140E3A
:1016D000034A00F00F031B1FD45410BD00E400E0C8
:1016E00018ED00E002E008C8121F08C1002AFAD174
:1016F00070477047002001E001C1121F002AFBD192
:10170000704710B504464FF47A7104FB01F000F005
:1017100001F810BD2DE9F047074600264FF0E02004
:10172000006900F0010008B900F0D6F84FF0E020A1
:10173000D0F81480124800681249B0FBF1F000FBA9
:1017400007F900F0D3F84FF0E020856911E04FF081
:10175000E0208469AC420CD0AC4202D2281B064483
:1017600003E0A8EB04002844064425464E4500D378
:1017700000E0ECE700BF00F07FF9BDE8F087000073
:101780000000002040420F0000B585B000BF0D48AA
:10179000806940F008000B4988610846806900F0C4
:1017A0000800009000BF00BF20200190012002909F
:1017B00003900320049001A90348FEF797FD05B0AC
:1017C00000BD000000100240000C0140FEF72AFF9F
:1017D0004FF4E010FFF7EAFDFFF7D6FFFFF7D8FC64
:1017E000FFF794FDFFF791FC202202210846FFF746
:1017F000A3FC00BF11E0012220210848FEF706FFEC
:101800004FF4FA70FFF77DFF002220210348FEF716
:10181000FDFE4FF4FA70FFF774FFECE7000C014097
:101820000A490968096809B9012100E0002121B1CC
:101830004FF0FF31064A116006E004490968C968A3
:10184000C868034A41681160704700001400002016
:101850004000002001460A69D1E901309860D1E9D1
:10186000010358605068884201D1886850600020A8
:1018700008611068401E10601068704742684A6036
:1018800093688B60936859609160086103685B1C82
:101890000360704700BFBF2080F31188BFF34F8FF4
:1018A000BFF36F8F00BF03480068401C0149086008
:1018B000704700004C00002006480068401E0549A3
:1018C00008600846006820B9002080F3118800BF36
:1018D00000BF70474C00002003484FF0E0214861F2
:1018E00007200861704700003F19010002480068A6
:1018F000401C0149086070474800002012480068F9
:1019000018B10120114908601DE000200F4908604E
:101910000F480068B0FA80F0C0F11F0101EB8102AE
:101920000C4B03EB820042685268426000F10802EF
:101930004368934202D14268526842604268D2686A
:10194000054B1A6000BF704748000020340000209B
:101950002800002050000020100000202DE9F04158
:1019600000273A480068002863D139480068451CC0
:10197000374805608DB93748D0F800803648006890
:10198000344908603448C0F8008034480068401C7E
:1019900032490860FFF744FF00BF314800688542C4
:1019A0003BD300BF2B480068006808B9012000E065
:1019B000002020B14FF0FF30294908602CE0254875
:1019C0000068C068C4686668B54202D224480660F0
:1019D00022E0201DFFF73EFFA06A18B104F11800B5
:1019E000FFF738FF94F82C10012088401D49096842
:1019F00008431C490860E16A01EB81011A4A02EBC5
:101A00008100211DFFF73AFF1849E06A0968C96A99
:101A10008842C7D30127C5E700BF14480068C06AE1
:101A200000EB8000104951F82000012800D901275F
:101A300004E00F480068401C0D4908600D4800682C
:101A400000B101273846BDE8F081000048000020C1
:101A5000240000201400002018000020380000207E
:101A6000400000202800002050000020100000202E
:101A7000300000203400002070B500240026FFF75D
:101A800009FF2E480068401E2C490860084600687F
:101A900000284FD12A48006800284BD024E029486C
:101AA000C068C46804F11800FFF7D4FE201DFFF7DA
:101AB000D1FE94F82C10012088402349096808437E
:101AC00021490860E16A01EB8101204A02EB8100B3
:101AD000211DFFF7D3FE1E49E06A0968C96A8842E2
:101AE00002D301201B4908601648006808B901208C
:101AF00000E000200028D2D00CB1FFF791FE16487C
:101B0000056865B100BFFFF729FF10B10120114939
:101B100008606D1E002DF6D100200F4908600D48A9
:101B2000006838B1012630070C490860BFF34F8FB9
:101B3000BFF36F8FFFF7C0FE304670BD4800002036
:101B400020000020DC0000202800002050000020A1
:101B500010000020340000203000002004ED00E0E0
:101B6000000000000000000001020304060708094D
:101B7000000000000102030402030405060708092F
:101B80000A0B0C0D0E0F10100102AED580A83FD32A
:101B900000408D142002A1C8DA1281EFD9F1DB30A8
:101BA000A4A6AF0000000000000000002F0000000D
:101BB000000700070000147F147F1400242A7F2AE6
:101BC00012006264081323003649552250000005B4
:101BD00003000000001C224100000041221C000004
:101BE00014083E08140008083E0808000000A06021
:101BF00000080808080808000060600000002010C5
:101C0000080402003E5149453E0000427F4000006A
:101C10004261514946002141454B31001814127F61
:101C200010002745454539003C4A494930000171BB
:101C300009050300364949493600064949291E006D
:101C40000036360000000056360000081C2A4908FD
:101C5000081414141414140808492A1C080002015A
:101C600051090600324959513E007C1211127C0084
:101C70007F49494936003E41414122007F4141228E
:101C80001C007F49494941007F09090901003E4183
:101C900049497A007F0808087F0000417F41000021
:101CA0002040413F01007F08142241007F40404016
:101CB00040007F020C027F007F0408107F003E413D
:101CC00041413E007F09090906003E4151215E0065
:101CD0007F091929460046494949310001017F0120
:101CE00001003F4040403F001F2040201F003F4078
:101CF00038403F00631408146300070870080700A9
:101D0000615149454300007F41410000552A552A51
:101D100055000041417F000402FF02040000204002
:101D2000FF402000000102040000205454547800B9
:101D30007F484444380038444444200038444448F0
:101D40007F00385454541800087E0901020018A47A
:101D5000A4A47C007F080404780000447D400000B7
:101D60004080847D00007F102844000000417F40B7
:101D700000007C04180478007C08040478003844CF
:101D800044443800FC242424180018242418FC009F
:101D90007C0804040800485454542000043F444084
:101DA00020003C4040207C001C2040201C003C4087
:101DB00030403C004428102844001CA0A0A07C0017
:101DC0004464544C44000000000000000000000087
:101DD0000000000000000000000000000000F8000B
:101DE000000000000000333000000000100C06105E
:101DF0000C0600000000000000000040C07840C059
:101E0000784000043F04043F040400007088FC088C
:101E1000300000001820FF211E0000F008F000E054
:101E200018000000211C031E211E0000F00888700D
:101E30000000001E2123241927211010160E000077
:101E40000000000000000000000000000000E0189A
:101E5000040200000000071820400000020418E0FF
:101E60000000000040201807000000404080F08083
:101E70004040000202010F01020200000000F000D9
:101E80000000000101011F0101010000000000002D
:101E900000000080B07000000000000000000000A2
:101EA000000000000101010101010100000000002B
:101EB0000000000030300000000000000000008042
:101EC000601804006018060100000000E010080817
:101ED00010E000000F102020100F00001010F8007C
:101EE0000000000020203F202000000070080808AB
:101EF00088700000302824222130000030088888B3
:101F00004830000018202020110E000000C02010D2
:101F1000F8000000070424243F240000F808888803
:101F20000808000019212020110E0000E010888808
:101F3000180000000F112020110E0000380808C8FA
:101F40003808000000003F0000000000708808080A
:101F5000887000001C222121221C0000E0100808CB
:101F600010E0000000312222110F00000000C0C06C
:101F70000000000000003030000000000000800081
:101F80000000000000806000000000000080402091
:101F900010080000010204081020004040404040AA
:101FA000404000040404040404040000081020401D
:101FB000800000002010080402010000704808089A
:101FC00008F0000000003036010000C030C828E8EA
:101FD00010E0000718272423140B000000C038E08D
:101FE000000000203C23020227382008F888888857
:101FF000700000203F202020110E00C0300808088B
:10200000083800071820202010080008F8080808E1
:1020100010E000203F202020100F0008F88888E8FA
:10202000081000203F20202320180008F88888E8A6
:10203000081000203F200003000000C030080808FE
:1020400038000007182020221E020008F8080000AF
:1020500008F808203F210101213F20000808F80866
:102060000800000020203F2020000000000808F8A1
:10207000080800C08080807F00000008F888C02821
:10208000180800203F20012638200008F80800002A
:10209000000000203F20202020300008F8F800F841
:1020A000F80800203F003F003F200008F830C00043
:1020B00008F808203F200007183F00E01008080833
:1020C00010E0000F10202020100F0008F80808086A
:1020D00008F000203F210101010000E0100808087D
:1020E00010E0000F18242438504F0008F888888822
:1020F000887000203F2000030C3020007088080802
:102100000838000038202121221C00180808F8088F
:102110000818000000203F2000000008F808000018
:1021200008F808001F202020201F000878880000E1
:10213000C83808000007380E010000F80800F80051
:1021400008F800033C0700073C030008186880807B
:1021500068180820302C03032C30200838C800C829
:102160003808000000203F2000000010080808C8C0
:102170003808002038262120201800000000FE0228
:102180000202000000007F40404000000C30C00010
:10219000000000000000010638C00000020202FE3C
:1021A000000000004040407F0000000000040202E8
:1021B0000204000000000000000000000000000019
:1021C0000000008080808080808080000202040007
:1021D000000000000000000000000000008080807F
:1021E0008000000019242222223F2008F80080806D
:1021F000000000003F112020110E00000000808030
:10220000800000000E1120202011000000008080BE
:1022100088F800000E112020103F200000808080F0
:10222000800000001F222222221300008080F088FC
:102230008888180020203F20200000000080808037
:10224000808000006B94949493600008F800808074
:10225000800000203F210000203F2000809898004F
:102260000000000020203F20200000000000809897
:1022700098000000C08080807F000008F800008087
:10228000808000203F24022D302000000808F80044
:102290000000000020203F202000008080808080FF
:1022A000808000203F20003F20003F808000808011
:1022B000800000203F210000203F2000008080801F
:1022C000800000001F202020201F008080008080D0
:1022D00000000080FFA12020110E0000000080807F
:1022E000808000000E112020A0FF80808080008070
:1022F00080800020203F212000010000008080809D
:102300008080000033242424241900008080E08091
:102310008000000000001F202000008080000000DE
:10232000808000001F202020103F2080808000003F
:1023300080808000010E300806010080800080004F
:102340008080800F300C030C300F000080800080F4
:102350008080000020312E0E31200080808000001F
:1023600080808080818E70180601000080808080CF
:102370008080000021302C222130000000000080ED
:102380007C020200000000003F40400002027C800E
:102390000000000040403F0000000000000000FF7F
:1023A00000000000000000FF00000000000000002E
:1023B000008080000000000000010100DC23000814
:1023C0000000002050000000E41600082C24000843
:1023D0005000002030050000F41600080024F4002E
:1023E00000000000100000000100000000000000DC
:1023F00000000000000000000000000000000000DD
:1024000000000000000000000000000000000000CC
:1024100000000000000000000000000000000000BC
:0C2420000000000000000000AAAAAAAA08
:04000005080000ED02
:00000001FF
